{
  "contractName": "OTT",
  "abi": [
    {
      "inputs": [],
      "stateMutability": "nonpayable",
      "type": "constructor"
    },
    {
      "anonymous": false,
      "inputs": [
        {
          "indexed": true,
          "internalType": "address",
          "name": "owner",
          "type": "address"
        },
        {
          "indexed": true,
          "internalType": "address",
          "name": "approved",
          "type": "address"
        },
        {
          "indexed": true,
          "internalType": "uint256",
          "name": "tokenId",
          "type": "uint256"
        }
      ],
      "name": "Approval",
      "type": "event"
    },
    {
      "anonymous": false,
      "inputs": [
        {
          "indexed": true,
          "internalType": "address",
          "name": "owner",
          "type": "address"
        },
        {
          "indexed": true,
          "internalType": "address",
          "name": "operator",
          "type": "address"
        },
        {
          "indexed": false,
          "internalType": "bool",
          "name": "approved",
          "type": "bool"
        }
      ],
      "name": "ApprovalForAll",
      "type": "event"
    },
    {
      "anonymous": false,
      "inputs": [
        {
          "indexed": true,
          "internalType": "address",
          "name": "from",
          "type": "address"
        },
        {
          "indexed": true,
          "internalType": "address",
          "name": "to",
          "type": "address"
        },
        {
          "indexed": true,
          "internalType": "uint256",
          "name": "tokenId",
          "type": "uint256"
        }
      ],
      "name": "Transfer",
      "type": "event"
    },
    {
      "inputs": [],
      "name": "ContentCounter",
      "outputs": [
        {
          "internalType": "uint256",
          "name": "",
          "type": "uint256"
        }
      ],
      "stateMutability": "view",
      "type": "function"
    },
    {
      "inputs": [],
      "name": "UserCounter",
      "outputs": [
        {
          "internalType": "uint256",
          "name": "",
          "type": "uint256"
        }
      ],
      "stateMutability": "view",
      "type": "function"
    },
    {
      "inputs": [
        {
          "internalType": "uint256",
          "name": "",
          "type": "uint256"
        }
      ],
      "name": "allAddress",
      "outputs": [
        {
          "internalType": "address",
          "name": "",
          "type": "address"
        }
      ],
      "stateMutability": "view",
      "type": "function"
    },
    {
      "inputs": [
        {
          "internalType": "uint256",
          "name": "",
          "type": "uint256"
        }
      ],
      "name": "allContents",
      "outputs": [
        {
          "internalType": "uint256",
          "name": "contentId",
          "type": "uint256"
        },
        {
          "internalType": "string",
          "name": "contentName",
          "type": "string"
        },
        {
          "internalType": "string",
          "name": "contentType",
          "type": "string"
        },
        {
          "internalType": "string",
          "name": "contentDesc",
          "type": "string"
        },
        {
          "internalType": "string",
          "name": "subcribedUser",
          "type": "string"
        },
        {
          "internalType": "string",
          "name": "contentThumbnailURI",
          "type": "string"
        },
        {
          "internalType": "string",
          "name": "contentURI",
          "type": "string"
        },
        {
          "internalType": "address payable",
          "name": "currentOwner",
          "type": "address"
        },
        {
          "internalType": "uint256",
          "name": "price",
          "type": "uint256"
        },
        {
          "internalType": "uint256",
          "name": "numberOfViewer",
          "type": "uint256"
        }
      ],
      "stateMutability": "view",
      "type": "function"
    },
    {
      "inputs": [
        {
          "internalType": "address",
          "name": "",
          "type": "address"
        }
      ],
      "name": "allProfiles",
      "outputs": [
        {
          "internalType": "string",
          "name": "name",
          "type": "string"
        },
        {
          "internalType": "address",
          "name": "user",
          "type": "address"
        },
        {
          "internalType": "string",
          "name": "email",
          "type": "string"
        }
      ],
      "stateMutability": "view",
      "type": "function"
    },
    {
      "inputs": [
        {
          "internalType": "address",
          "name": "to",
          "type": "address"
        },
        {
          "internalType": "uint256",
          "name": "tokenId",
          "type": "uint256"
        }
      ],
      "name": "approve",
      "outputs": [],
      "stateMutability": "nonpayable",
      "type": "function"
    },
    {
      "inputs": [
        {
          "internalType": "address",
          "name": "owner",
          "type": "address"
        }
      ],
      "name": "balanceOf",
      "outputs": [
        {
          "internalType": "uint256",
          "name": "",
          "type": "uint256"
        }
      ],
      "stateMutability": "view",
      "type": "function"
    },
    {
      "inputs": [],
      "name": "baseURI",
      "outputs": [
        {
          "internalType": "string",
          "name": "",
          "type": "string"
        }
      ],
      "stateMutability": "view",
      "type": "function"
    },
    {
      "inputs": [],
      "name": "collectionName",
      "outputs": [
        {
          "internalType": "string",
          "name": "",
          "type": "string"
        }
      ],
      "stateMutability": "view",
      "type": "function"
    },
    {
      "inputs": [],
      "name": "collectionNameSymbol",
      "outputs": [
        {
          "internalType": "string",
          "name": "",
          "type": "string"
        }
      ],
      "stateMutability": "view",
      "type": "function"
    },
    {
      "inputs": [
        {
          "internalType": "uint256",
          "name": "tokenId",
          "type": "uint256"
        }
      ],
      "name": "getApproved",
      "outputs": [
        {
          "internalType": "address",
          "name": "",
          "type": "address"
        }
      ],
      "stateMutability": "view",
      "type": "function"
    },
    {
      "inputs": [
        {
          "internalType": "address",
          "name": "owner",
          "type": "address"
        },
        {
          "internalType": "address",
          "name": "operator",
          "type": "address"
        }
      ],
      "name": "isApprovedForAll",
      "outputs": [
        {
          "internalType": "bool",
          "name": "",
          "type": "bool"
        }
      ],
      "stateMutability": "view",
      "type": "function"
    },
    {
      "inputs": [
        {
          "internalType": "address",
          "name": "",
          "type": "address"
        }
      ],
      "name": "isProfileSet",
      "outputs": [
        {
          "internalType": "bool",
          "name": "",
          "type": "bool"
        }
      ],
      "stateMutability": "view",
      "type": "function"
    },
    {
      "inputs": [],
      "name": "name",
      "outputs": [
        {
          "internalType": "string",
          "name": "",
          "type": "string"
        }
      ],
      "stateMutability": "view",
      "type": "function"
    },
    {
      "inputs": [
        {
          "internalType": "uint256",
          "name": "tokenId",
          "type": "uint256"
        }
      ],
      "name": "ownerOf",
      "outputs": [
        {
          "internalType": "address",
          "name": "",
          "type": "address"
        }
      ],
      "stateMutability": "view",
      "type": "function"
    },
    {
      "inputs": [
        {
          "internalType": "address",
          "name": "from",
          "type": "address"
        },
        {
          "internalType": "address",
          "name": "to",
          "type": "address"
        },
        {
          "internalType": "uint256",
          "name": "tokenId",
          "type": "uint256"
        }
      ],
      "name": "safeTransferFrom",
      "outputs": [],
      "stateMutability": "nonpayable",
      "type": "function"
    },
    {
      "inputs": [
        {
          "internalType": "address",
          "name": "from",
          "type": "address"
        },
        {
          "internalType": "address",
          "name": "to",
          "type": "address"
        },
        {
          "internalType": "uint256",
          "name": "tokenId",
          "type": "uint256"
        },
        {
          "internalType": "bytes",
          "name": "_data",
          "type": "bytes"
        }
      ],
      "name": "safeTransferFrom",
      "outputs": [],
      "stateMutability": "nonpayable",
      "type": "function"
    },
    {
      "inputs": [
        {
          "internalType": "address",
          "name": "operator",
          "type": "address"
        },
        {
          "internalType": "bool",
          "name": "approved",
          "type": "bool"
        }
      ],
      "name": "setApprovalForAll",
      "outputs": [],
      "stateMutability": "nonpayable",
      "type": "function"
    },
    {
      "inputs": [
        {
          "internalType": "bytes4",
          "name": "interfaceId",
          "type": "bytes4"
        }
      ],
      "name": "supportsInterface",
      "outputs": [
        {
          "internalType": "bool",
          "name": "",
          "type": "bool"
        }
      ],
      "stateMutability": "view",
      "type": "function"
    },
    {
      "inputs": [],
      "name": "symbol",
      "outputs": [
        {
          "internalType": "string",
          "name": "",
          "type": "string"
        }
      ],
      "stateMutability": "view",
      "type": "function"
    },
    {
      "inputs": [
        {
          "internalType": "uint256",
          "name": "index",
          "type": "uint256"
        }
      ],
      "name": "tokenByIndex",
      "outputs": [
        {
          "internalType": "uint256",
          "name": "",
          "type": "uint256"
        }
      ],
      "stateMutability": "view",
      "type": "function"
    },
    {
      "inputs": [
        {
          "internalType": "string",
          "name": "",
          "type": "string"
        }
      ],
      "name": "tokenContentExists",
      "outputs": [
        {
          "internalType": "bool",
          "name": "",
          "type": "bool"
        }
      ],
      "stateMutability": "view",
      "type": "function"
    },
    {
      "inputs": [
        {
          "internalType": "address",
          "name": "owner",
          "type": "address"
        },
        {
          "internalType": "uint256",
          "name": "index",
          "type": "uint256"
        }
      ],
      "name": "tokenOfOwnerByIndex",
      "outputs": [
        {
          "internalType": "uint256",
          "name": "",
          "type": "uint256"
        }
      ],
      "stateMutability": "view",
      "type": "function"
    },
    {
      "inputs": [
        {
          "internalType": "uint256",
          "name": "tokenId",
          "type": "uint256"
        }
      ],
      "name": "tokenURI",
      "outputs": [
        {
          "internalType": "string",
          "name": "",
          "type": "string"
        }
      ],
      "stateMutability": "view",
      "type": "function"
    },
    {
      "inputs": [],
      "name": "totalSupply",
      "outputs": [
        {
          "internalType": "uint256",
          "name": "",
          "type": "uint256"
        }
      ],
      "stateMutability": "view",
      "type": "function"
    },
    {
      "inputs": [
        {
          "internalType": "address",
          "name": "from",
          "type": "address"
        },
        {
          "internalType": "address",
          "name": "to",
          "type": "address"
        },
        {
          "internalType": "uint256",
          "name": "tokenId",
          "type": "uint256"
        }
      ],
      "name": "transferFrom",
      "outputs": [],
      "stateMutability": "nonpayable",
      "type": "function"
    },
    {
      "inputs": [
        {
          "internalType": "string",
          "name": "_name",
          "type": "string"
        },
        {
          "internalType": "string",
          "name": "_contentType",
          "type": "string"
        },
        {
          "internalType": "string",
          "name": "_contentDesc",
          "type": "string"
        },
        {
          "internalType": "string",
          "name": "_contentThumbnailURI",
          "type": "string"
        },
        {
          "internalType": "string",
          "name": "_contentURI",
          "type": "string"
        },
        {
          "internalType": "string",
          "name": "_tokenURI",
          "type": "string"
        },
        {
          "internalType": "uint256",
          "name": "_price",
          "type": "uint256"
        }
      ],
      "name": "createContent",
      "outputs": [],
      "stateMutability": "nonpayable",
      "type": "function"
    },
    {
      "inputs": [
        {
          "internalType": "uint256",
          "name": "_tokenId",
          "type": "uint256"
        }
      ],
      "name": "getTokenOwner",
      "outputs": [
        {
          "internalType": "address",
          "name": "",
          "type": "address"
        }
      ],
      "stateMutability": "view",
      "type": "function"
    },
    {
      "inputs": [
        {
          "internalType": "uint256",
          "name": "_tokenId",
          "type": "uint256"
        }
      ],
      "name": "getTokenMetaData",
      "outputs": [
        {
          "internalType": "string",
          "name": "",
          "type": "string"
        }
      ],
      "stateMutability": "view",
      "type": "function"
    },
    {
      "inputs": [],
      "name": "getNumberOfContentMinted",
      "outputs": [
        {
          "internalType": "uint256",
          "name": "",
          "type": "uint256"
        }
      ],
      "stateMutability": "view",
      "type": "function"
    }
  ],
  "bytecode": "0x60806040523480156200001157600080fd5b506040518060400160405280601281526020017f436f6e74656e7420436f6c6c656374696f6e00000000000000000000000000008152506040518060400160405280600381526020017f4f54540000000000000000000000000000000000000000000000000000000000815250620000966301ffc9a760e01b6200016860201b60201c565b8160069080519060200190620000ae929190620003bd565b508060079080519060200190620000c7929190620003bd565b50620000e06380ac58cd60e01b6200016860201b60201c565b620000f8635b5e139f60e01b6200016860201b60201c565b6200011063780e9d6360e01b6200016860201b60201c565b5050620001226200027160201b60201c565b600a908051906020019062000139929190620003bd565b506200014a6200031760201b60201c565b600b908051906020019062000161929190620003bd565b5062000473565b63ffffffff60e01b817bffffffffffffffffffffffffffffffffffffffffffffffffffffffff1916141562000205576040517f08c379a000000000000000000000000000000000000000000000000000000000815260040180806020018281038252601c8152602001807f4552433136353a20696e76616c696420696e746572666163652069640000000081525060200191505060405180910390fd5b6001600080837bffffffffffffffffffffffffffffffffffffffffffffffffffffffff19167bffffffffffffffffffffffffffffffffffffffffffffffffffffffff1916815260200190815260200160002060006101000a81548160ff02191690831515021790555050565b606060068054600181600116156101000203166002900480601f0160208091040260200160405190810160405280929190818152602001828054600181600116156101000203166002900480156200030d5780601f10620002e1576101008083540402835291602001916200030d565b820191906000526020600020905b815481529060010190602001808311620002ef57829003601f168201915b5050505050905090565b606060078054600181600116156101000203166002900480601f016020809104026020016040519081016040528092919081815260200182805460018160011615610100020316600290048015620003b35780601f106200038757610100808354040283529160200191620003b3565b820191906000526020600020905b8154815290600101906020018083116200039557829003601f168201915b5050505050905090565b828054600181600116156101000203166002900490600052602060002090601f016020900481019282620003f5576000855562000441565b82601f106200041057805160ff191683800117855562000441565b8280016001018555821562000441579182015b828111156200044057825182559160200191906001019062000423565b5b50905062000450919062000454565b5090565b5b808211156200046f57600081600090555060010162000455565b5090565b613b0c80620004836000396000f3fe608060405234801561001057600080fd5b50600436106101da5760003560e01c806357f2af6711610104578063a22cb465116100a2578063c36e178811610071578063c36e1788146105d4578063c87b56dd146105f2578063e5326ab114610622578063e985e9c514610640576101da565b8063a22cb4651461053c578063a5cd761f14610558578063a8cef27a14610588578063b88d4fde146105b8576101da565b80636c0360eb116100de5780636c0360eb146104b25780636f9507f9146104d057806370a08231146104ee57806395d89b411461051e576101da565b806357f2af67146104225780636352211e1461045257806367c623cf14610482576101da565b8063185756ae1161017c57806342842e0e1161014b57806342842e0e1461039c578063483f8602146103b85780634f6ccce7146103d6578063530e6afc14610406576101da565b8063185756ae146103025780631f8de47f1461033257806323b872dd146103505780632f745c591461036c576101da565b8063081812fc116101b8578063081812fc1461025f578063095ea7b31461028f5780630a9bbe22146102ab57806318160ddd146102e4576101da565b806301ffc9a7146101df57806302959a201461020f57806306fdde0314610241575b600080fd5b6101f960048036038101906101f49190613272565b610670565b604051610206919061350b565b60405180910390f35b610229600480360381019061022491906130cb565b6106d7565b60405161023893929190613548565b60405180910390f35b610249610851565b6040516102569190613526565b60405180910390f35b6102796004803603810190610274919061340a565b6108f3565b60405161028691906134f0565b60405180910390f35b6102a960048036038101906102a49190613236565b61098e565b005b6102c560048036038101906102c0919061340a565b610ad2565b6040516102db9a999897969594939291906135a8565b60405180910390f35b6102ec610ed6565b6040516102f9919061358d565b60405180910390f35b61031c600480360381019061031791906130cb565b610ee7565b604051610329919061350b565b60405180910390f35b61033a610f07565b604051610347919061358d565b60405180910390f35b61036a60048036038101906103659190613130565b610f0d565b005b61038660048036038101906103819190613236565b610f83565b604051610393919061358d565b60405180910390f35b6103b660048036038101906103b19190613130565b610fde565b005b6103c0610ffe565b6040516103cd919061358d565b60405180910390f35b6103f060048036038101906103eb919061340a565b611004565b6040516103fd919061358d565b60405180910390f35b610420600480360381019061041b91906132dc565b611027565b005b61043c6004803603810190610437919061329b565b611268565b604051610449919061350b565b60405180910390f35b61046c6004803603810190610467919061340a565b61129e565b60405161047991906134f0565b60405180910390f35b61049c6004803603810190610497919061340a565b6112d5565b6040516104a99190613526565b60405180910390f35b6104ba6112ed565b6040516104c79190613526565b60405180910390f35b6104d861138f565b6040516104e59190613526565b60405180910390f35b610508600480360381019061050391906130cb565b61142d565b604051610515919061358d565b60405180910390f35b610526611502565b6040516105339190613526565b60405180910390f35b610556600480360381019061055191906131fa565b6115a4565b005b610572600480360381019061056d919061340a565b61175a565b60405161057f91906134f0565b60405180910390f35b6105a2600480360381019061059d919061340a565b611771565b6040516105af91906134f0565b60405180910390f35b6105d260048036038101906105cd919061317f565b6117a4565b005b6105dc61181c565b6040516105e9919061358d565b60405180910390f35b61060c6004803603810190610607919061340a565b611830565b6040516106199190613526565b60405180910390f35b61062a611b01565b6040516106379190613526565b60405180910390f35b61065a600480360381019061065591906130f4565b611b9f565b604051610667919061350b565b60405180910390f35b6000806000837bffffffffffffffffffffffffffffffffffffffffffffffffffffffff19167bffffffffffffffffffffffffffffffffffffffffffffffffffffffff1916815260200190815260200160002060009054906101000a900460ff169050919050565b600e602052806000526040600020600091509050806000018054600181600116156101000203166002900480601f0160208091040260200160405190810160405280929190818152602001828054600181600116156101000203166002900480156107835780601f1061075857610100808354040283529160200191610783565b820191906000526020600020905b81548152906001019060200180831161076657829003601f168201915b5050505050908060010160009054906101000a900473ffffffffffffffffffffffffffffffffffffffff1690806002018054600181600116156101000203166002900480601f0160208091040260200160405190810160405280929190818152602001828054600181600116156101000203166002900480156108475780601f1061081c57610100808354040283529160200191610847565b820191906000526020600020905b81548152906001019060200180831161082a57829003601f168201915b5050505050905083565b606060068054600181600116156101000203166002900480601f0160208091040260200160405190810160405280929190818152602001828054600181600116156101000203166002900480156108e95780601f106108be576101008083540402835291602001916108e9565b820191906000526020600020905b8154815290600101906020018083116108cc57829003601f168201915b5050505050905090565b60006108fe82611c33565b610953576040517f08c379a000000000000000000000000000000000000000000000000000000000815260040180806020018281038252602c8152602001806139d5602c913960400191505060405180910390fd5b6004600083815260200190815260200160002060009054906101000a900473ffffffffffffffffffffffffffffffffffffffff169050919050565b60006109998261129e565b90508073ffffffffffffffffffffffffffffffffffffffff168373ffffffffffffffffffffffffffffffffffffffff161415610a20576040517f08c379a0000000000000000000000000000000000000000000000000000000008152600401808060200182810382526021815260200180613a856021913960400191505060405180910390fd5b8073ffffffffffffffffffffffffffffffffffffffff16610a3f611c50565b73ffffffffffffffffffffffffffffffffffffffff161480610a6e5750610a6d81610a68611c50565b611b9f565b5b610ac3576040517f08c379a00000000000000000000000000000000000000000000000000000000081526004018080602001828103825260388152602001806139286038913960400191505060405180910390fd5b610acd8383611c58565b505050565b6011602052806000526040600020600091509050806000015490806001018054600181600116156101000203166002900480601f016020809104026020016040519081016040528092919081815260200182805460018160011615610100020316600290048015610b845780601f10610b5957610100808354040283529160200191610b84565b820191906000526020600020905b815481529060010190602001808311610b6757829003601f168201915b505050505090806002018054600181600116156101000203166002900480601f016020809104026020016040519081016040528092919081815260200182805460018160011615610100020316600290048015610c225780601f10610bf757610100808354040283529160200191610c22565b820191906000526020600020905b815481529060010190602001808311610c0557829003601f168201915b505050505090806003018054600181600116156101000203166002900480601f016020809104026020016040519081016040528092919081815260200182805460018160011615610100020316600290048015610cc05780601f10610c9557610100808354040283529160200191610cc0565b820191906000526020600020905b815481529060010190602001808311610ca357829003601f168201915b505050505090806004018054600181600116156101000203166002900480601f016020809104026020016040519081016040528092919081815260200182805460018160011615610100020316600290048015610d5e5780601f10610d3357610100808354040283529160200191610d5e565b820191906000526020600020905b815481529060010190602001808311610d4157829003601f168201915b505050505090806005018054600181600116156101000203166002900480601f016020809104026020016040519081016040528092919081815260200182805460018160011615610100020316600290048015610dfc5780601f10610dd157610100808354040283529160200191610dfc565b820191906000526020600020905b815481529060010190602001808311610ddf57829003601f168201915b505050505090806006018054600181600116156101000203166002900480601f016020809104026020016040519081016040528092919081815260200182805460018160011615610100020316600290048015610e9a5780601f10610e6f57610100808354040283529160200191610e9a565b820191906000526020600020905b815481529060010190602001808311610e7d57829003601f168201915b5050505050908060070160009054906101000a900473ffffffffffffffffffffffffffffffffffffffff1690806008015490806009015490508a565b6000610ee26002611d11565b905090565b60106020528060005260406000206000915054906101000a900460ff1681565b600c5481565b610f1e610f18611c50565b82611d26565b610f73576040517f08c379a0000000000000000000000000000000000000000000000000000000008152600401808060200182810382526031815260200180613aa66031913960400191505060405180910390fd5b610f7e838383611e1a565b505050565b6000610fd682600160008673ffffffffffffffffffffffffffffffffffffffff1673ffffffffffffffffffffffffffffffffffffffff16815260200190815260200160002061205d90919063ffffffff16565b905092915050565b610ff9838383604051806020016040528060008152506117a4565b505050565b600d5481565b60008061101b83600261207790919063ffffffff16565b50905080915050919050565b600c6000815480929190600101919050555060128360405161104991906134d9565b908152602001604051809103902060009054906101000a900460ff161561106f57600080fd5b61107b33600c546120a3565b611087600c5484612297565b600160128460405161109991906134d9565b908152602001604051809103902060006101000a81548160ff0219169083151502179055506000604051806101400160405280600c5481526020018981526020018881526020018781526020016040518060200160405280600081525081526020018681526020018581526020013373ffffffffffffffffffffffffffffffffffffffff168152602001838152602001600081525090508060116000600c54815260200190815260200160002060008201518160000155602082015181600101908051906020019061116c929190612efc565b506040820151816002019080519060200190611189929190612efc565b5060608201518160030190805190602001906111a6929190612efc565b5060808201518160040190805190602001906111c3929190612efc565b5060a08201518160050190805190602001906111e0929190612efc565b5060c08201518160060190805190602001906111fd929190612efc565b5060e08201518160070160006101000a81548173ffffffffffffffffffffffffffffffffffffffff021916908373ffffffffffffffffffffffffffffffffffffffff160217905550610100820151816008015561012082015181600901559050505050505050505050565b6012818051602081018201805184825260208301602085012081835280955050505050506000915054906101000a900460ff1681565b60006112ce8260405180606001604052806029815260200161398a6029913960026123219092919063ffffffff16565b9050919050565b606060006112e283611830565b905080915050919050565b606060098054600181600116156101000203166002900480601f0160208091040260200160405190810160405280929190818152602001828054600181600116156101000203166002900480156113855780601f1061135a57610100808354040283529160200191611385565b820191906000526020600020905b81548152906001019060200180831161136857829003601f168201915b5050505050905090565b600b8054600181600116156101000203166002900480601f0160208091040260200160405190810160405280929190818152602001828054600181600116156101000203166002900480156114255780601f106113fa57610100808354040283529160200191611425565b820191906000526020600020905b81548152906001019060200180831161140857829003601f168201915b505050505081565b60008073ffffffffffffffffffffffffffffffffffffffff168273ffffffffffffffffffffffffffffffffffffffff1614156114b4576040517f08c379a000000000000000000000000000000000000000000000000000000000815260040180806020018281038252602a815260200180613960602a913960400191505060405180910390fd5b6114fb600160008473ffffffffffffffffffffffffffffffffffffffff1673ffffffffffffffffffffffffffffffffffffffff168152602001908152602001600020612340565b9050919050565b606060078054600181600116156101000203166002900480601f01602080910402602001604051908101604052809291908181526020018280546001816001161561010002031660029004801561159a5780601f1061156f5761010080835404028352916020019161159a565b820191906000526020600020905b81548152906001019060200180831161157d57829003601f168201915b5050505050905090565b6115ac611c50565b73ffffffffffffffffffffffffffffffffffffffff168273ffffffffffffffffffffffffffffffffffffffff16141561164d576040517f08c379a00000000000000000000000000000000000000000000000000000000081526004018080602001828103825260198152602001807f4552433732313a20617070726f766520746f2063616c6c65720000000000000081525060200191505060405180910390fd5b806005600061165a611c50565b73ffffffffffffffffffffffffffffffffffffffff1673ffffffffffffffffffffffffffffffffffffffff16815260200190815260200160002060008473ffffffffffffffffffffffffffffffffffffffff1673ffffffffffffffffffffffffffffffffffffffff16815260200190815260200160002060006101000a81548160ff0219169083151502179055508173ffffffffffffffffffffffffffffffffffffffff16611707611c50565b73ffffffffffffffffffffffffffffffffffffffff167f17307eab39ab6107e8899845ad3d59bd9653f200f220920489ca2b5937696c318360405180821515815260200191505060405180910390a35050565b6000806117668361129e565b905080915050919050565b600f6020528060005260406000206000915054906101000a900473ffffffffffffffffffffffffffffffffffffffff1681565b6117b56117af611c50565b83611d26565b61180a576040517f08c379a0000000000000000000000000000000000000000000000000000000008152600401808060200182810382526031815260200180613aa66031913960400191505060405180910390fd5b61181684848484612355565b50505050565b600080611827610ed6565b90508091505090565b606061183b82611c33565b611890576040517f08c379a000000000000000000000000000000000000000000000000000000000815260040180806020018281038252602f815260200180613a56602f913960400191505060405180910390fd5b6000600860008481526020019081526020016000208054600181600116156101000203166002900480601f0160208091040260200160405190810160405280929190818152602001828054600181600116156101000203166002900480156119395780601f1061190e57610100808354040283529160200191611939565b820191906000526020600020905b81548152906001019060200180831161191c57829003601f168201915b50505050509050600061194a6112ed565b9050600081511415611960578192505050611afc565b600082511115611a315780826040516020018083805190602001908083835b602083106119a2578051825260208201915060208101905060208303925061197f565b6001836020036101000a03801982511681845116808217855250505050505090500182805190602001908083835b602083106119f357805182526020820191506020810190506020830392506119d0565b6001836020036101000a0380198251168184511680821785525050505050509050019250505060405160208183030381529060405292505050611afc565b80611a3b856123c7565b6040516020018083805190602001908083835b60208310611a715780518252602082019150602081019050602083039250611a4e565b6001836020036101000a03801982511681845116808217855250505050505090500182805190602001908083835b60208310611ac25780518252602082019150602081019050602083039250611a9f565b6001836020036101000a03801982511681845116808217855250505050505090500192505050604051602081830303815290604052925050505b919050565b600a8054600181600116156101000203166002900480601f016020809104026020016040519081016040528092919081815260200182805460018160011615610100020316600290048015611b975780601f10611b6c57610100808354040283529160200191611b97565b820191906000526020600020905b815481529060010190602001808311611b7a57829003601f168201915b505050505081565b6000600560008473ffffffffffffffffffffffffffffffffffffffff1673ffffffffffffffffffffffffffffffffffffffff16815260200190815260200160002060008373ffffffffffffffffffffffffffffffffffffffff1673ffffffffffffffffffffffffffffffffffffffff16815260200190815260200160002060009054906101000a900460ff16905092915050565b6000611c4982600261250e90919063ffffffff16565b9050919050565b600033905090565b816004600083815260200190815260200160002060006101000a81548173ffffffffffffffffffffffffffffffffffffffff021916908373ffffffffffffffffffffffffffffffffffffffff160217905550808273ffffffffffffffffffffffffffffffffffffffff16611ccb8361129e565b73ffffffffffffffffffffffffffffffffffffffff167f8c5be1e5ebec7d5bd14f71427d1e84f3dd0314c0f7b2291e5b200ac8c7c3b92560405160405180910390a45050565b6000611d1f82600001612528565b9050919050565b6000611d3182611c33565b611d86576040517f08c379a000000000000000000000000000000000000000000000000000000000815260040180806020018281038252602c8152602001806138fc602c913960400191505060405180910390fd5b6000611d918361129e565b90508073ffffffffffffffffffffffffffffffffffffffff168473ffffffffffffffffffffffffffffffffffffffff161480611e0057508373ffffffffffffffffffffffffffffffffffffffff16611de8846108f3565b73ffffffffffffffffffffffffffffffffffffffff16145b80611e115750611e108185611b9f565b5b91505092915050565b8273ffffffffffffffffffffffffffffffffffffffff16611e3a8261129e565b73ffffffffffffffffffffffffffffffffffffffff1614611ea6576040517f08c379a0000000000000000000000000000000000000000000000000000000008152600401808060200182810382526029815260200180613a2d6029913960400191505060405180910390fd5b600073ffffffffffffffffffffffffffffffffffffffff168273ffffffffffffffffffffffffffffffffffffffff161415611f2c576040517f08c379a00000000000000000000000000000000000000000000000000000000081526004018080602001828103825260248152602001806138b26024913960400191505060405180910390fd5b611f37838383612539565b611f42600082611c58565b611f9381600160008673ffffffffffffffffffffffffffffffffffffffff1673ffffffffffffffffffffffffffffffffffffffff16815260200190815260200160002061253e90919063ffffffff16565b50611fe581600160008573ffffffffffffffffffffffffffffffffffffffff1673ffffffffffffffffffffffffffffffffffffffff16815260200190815260200160002061255890919063ffffffff16565b50611ffc818360026125729092919063ffffffff16565b50808273ffffffffffffffffffffffffffffffffffffffff168473ffffffffffffffffffffffffffffffffffffffff167fddf252ad1be2c89b69c2b068fc378daa952ba7f163c4a11628f55a4df523b3ef60405160405180910390a4505050565b600061206c83600001836125a7565b60001c905092915050565b60008060008061208a866000018661262a565b915091508160001c8160001c9350935050509250929050565b600073ffffffffffffffffffffffffffffffffffffffff168273ffffffffffffffffffffffffffffffffffffffff161415612146576040517f08c379a00000000000000000000000000000000000000000000000000000000081526004018080602001828103825260208152602001807f4552433732313a206d696e7420746f20746865207a65726f206164647265737381525060200191505060405180910390fd5b61214f81611c33565b156121c2576040517f08c379a000000000000000000000000000000000000000000000000000000000815260040180806020018281038252601c8152602001807f4552433732313a20746f6b656e20616c7265616479206d696e7465640000000081525060200191505060405180910390fd5b6121ce60008383612539565b61221f81600160008573ffffffffffffffffffffffffffffffffffffffff1673ffffffffffffffffffffffffffffffffffffffff16815260200190815260200160002061255890919063ffffffff16565b50612236818360026125729092919063ffffffff16565b50808273ffffffffffffffffffffffffffffffffffffffff16600073ffffffffffffffffffffffffffffffffffffffff167fddf252ad1be2c89b69c2b068fc378daa952ba7f163c4a11628f55a4df523b3ef60405160405180910390a45050565b6122a082611c33565b6122f5576040517f08c379a000000000000000000000000000000000000000000000000000000000815260040180806020018281038252602c815260200180613a01602c913960400191505060405180910390fd5b8060086000848152602001908152602001600020908051906020019061231c929190612efc565b505050565b6000612334846000018460001b846126c3565b60001c90509392505050565b600061234e826000016127b9565b9050919050565b612360848484611e1a565b61236c848484846127ca565b6123c1576040517f08c379a00000000000000000000000000000000000000000000000000000000081526004018080602001828103825260328152602001806138806032913960400191505060405180910390fd5b50505050565b6060600082141561240f576040518060400160405280600181526020017f30000000000000000000000000000000000000000000000000000000000000008152509050612509565b600082905060005b60008214612439578080600101915050600a828161243157fe5b049150612417565b60008167ffffffffffffffff8111801561245257600080fd5b506040519080825280601f01601f1916602001820160405280156124855781602001600182028036833780820191505090505b50905060006001830390508593505b6000841461250157600a84816124a657fe5b0660300160f81b828280600190039350815181106124c057fe5b60200101907effffffffffffffffffffffffffffffffffffffffffffffffffffffffffffff1916908160001a905350600a84816124f957fe5b049350612494565b819450505050505b919050565b6000612520836000018360001b6129e3565b905092915050565b600081600001805490509050919050565b505050565b6000612550836000018360001b612a06565b905092915050565b600061256a836000018360001b612aee565b905092915050565b600061259e846000018460001b8473ffffffffffffffffffffffffffffffffffffffff1660001b612b5e565b90509392505050565b600081836000018054905011612608576040517f08c379a000000000000000000000000000000000000000000000000000000000815260040180806020018281038252602281526020018061385e6022913960400191505060405180910390fd5b82600001828154811061261757fe5b9060005260206000200154905092915050565b6000808284600001805490501161268c576040517f08c379a00000000000000000000000000000000000000000000000000000000081526004018080602001828103825260228152602001806139b36022913960400191505060405180910390fd5b600084600001848154811061269d57fe5b906000526020600020906002020190508060000154816001015492509250509250929050565b6000808460010160008581526020019081526020016000205490506000811415839061278a576040517f08c379a00000000000000000000000000000000000000000000000000000000081526004018080602001828103825283818151815260200191508051906020019080838360005b8381101561274f578082015181840152602081019050612734565b50505050905090810190601f16801561277c5780820380516001836020036101000a031916815260200191505b509250505060405180910390fd5b5084600001600182038154811061279d57fe5b9060005260206000209060020201600101549150509392505050565b600081600001805490509050919050565b60006127eb8473ffffffffffffffffffffffffffffffffffffffff16612c3a565b6127f857600190506129db565b600061296263150b7a0260e01b61280d611c50565b888787604051602401808573ffffffffffffffffffffffffffffffffffffffff1681526020018473ffffffffffffffffffffffffffffffffffffffff16815260200183815260200180602001828103825283818151815260200191508051906020019080838360005b83811015612891578082015181840152602081019050612876565b50505050905090810190601f1680156128be5780820380516001836020036101000a031916815260200191505b5095505050505050604051602081830303815290604052907bffffffffffffffffffffffffffffffffffffffffffffffffffffffff19166020820180517bffffffffffffffffffffffffffffffffffffffffffffffffffffffff8381831617835250505050604051806060016040528060328152602001613880603291398773ffffffffffffffffffffffffffffffffffffffff16612c4d9092919063ffffffff16565b9050600081806020019051602081101561297b57600080fd5b8101908080519060200190929190505050905063150b7a0260e01b7bffffffffffffffffffffffffffffffffffffffffffffffffffffffff1916817bffffffffffffffffffffffffffffffffffffffffffffffffffffffff191614925050505b949350505050565b600080836001016000848152602001908152602001600020541415905092915050565b60008083600101600084815260200190815260200160002054905060008114612ae25760006001820390506000600186600001805490500390506000866000018281548110612a5157fe5b9060005260206000200154905080876000018481548110612a6e57fe5b9060005260206000200181905550600183018760010160008381526020019081526020016000208190555086600001805480612aa657fe5b60019003818190600052602060002001600090559055866001016000878152602001908152602001600020600090556001945050505050612ae8565b60009150505b92915050565b6000612afa8383612c65565b612b53578260000182908060018154018082558091505060019003906000526020600020016000909190919091505582600001805490508360010160008481526020019081526020016000208190555060019050612b58565b600090505b92915050565b6000808460010160008581526020019081526020016000205490506000811415612c0557846000016040518060400160405280868152602001858152509080600181540180825580915050600190039060005260206000209060020201600090919091909150600082015181600001556020820151816001015550508460000180549050856001016000868152602001908152602001600020819055506001915050612c33565b82856000016001830381548110612c1857fe5b90600052602060002090600202016001018190555060009150505b9392505050565b600080823b905060008111915050919050565b6060612c5c8484600085612c88565b90509392505050565b600080836001016000848152602001908152602001600020541415905092915050565b606082471015612ce3576040517f08c379a00000000000000000000000000000000000000000000000000000000081526004018080602001828103825260268152602001806138d66026913960400191505060405180910390fd5b612cec85612c3a565b612d5e576040517f08c379a000000000000000000000000000000000000000000000000000000000815260040180806020018281038252601d8152602001807f416464726573733a2063616c6c20746f206e6f6e2d636f6e747261637400000081525060200191505060405180910390fd5b6000808673ffffffffffffffffffffffffffffffffffffffff1685876040518082805190602001908083835b60208310612dad5780518252602082019150602081019050602083039250612d8a565b6001836020036101000a03801982511681845116808217855250505050505090500191505060006040518083038185875af1925050503d8060008114612e0f576040519150601f19603f3d011682016040523d82523d6000602084013e612e14565b606091505b5091509150612e24828286612e30565b92505050949350505050565b60608315612e4057829050612ef5565b600083511115612e535782518084602001fd5b816040517f08c379a00000000000000000000000000000000000000000000000000000000081526004018080602001828103825283818151815260200191508051906020019080838360005b83811015612eba578082015181840152602081019050612e9f565b50505050905090810190601f168015612ee75780820380516001836020036101000a031916815260200191505b509250505060405180910390fd5b9392505050565b828054600181600116156101000203166002900490600052602060002090601f016020900481019282612f325760008555612f79565b82601f10612f4b57805160ff1916838001178555612f79565b82800160010185558215612f79579182015b82811115612f78578251825591602001919060010190612f5d565b5b509050612f869190612f8a565b5090565b5b80821115612fa3576000816000905550600101612f8b565b5090565b6000612fba612fb58461369f565b61366e565b905082815260208101848484011115612fd257600080fd5b612fdd8482856137ac565b509392505050565b6000612ff8612ff3846136cf565b61366e565b90508281526020810184848401111561301057600080fd5b61301b8482856137ac565b509392505050565b60008135905061303281613801565b92915050565b60008135905061304781613818565b92915050565b60008135905061305c8161382f565b92915050565b600082601f83011261307357600080fd5b8135613083848260208601612fa7565b91505092915050565b600082601f83011261309d57600080fd5b81356130ad848260208601612fe5565b91505092915050565b6000813590506130c581613846565b92915050565b6000602082840312156130dd57600080fd5b60006130eb84828501613023565b91505092915050565b6000806040838503121561310757600080fd5b600061311585828601613023565b925050602061312685828601613023565b9150509250929050565b60008060006060848603121561314557600080fd5b600061315386828701613023565b935050602061316486828701613023565b9250506040613175868287016130b6565b9150509250925092565b6000806000806080858703121561319557600080fd5b60006131a387828801613023565b94505060206131b487828801613023565b93505060406131c5878288016130b6565b925050606085013567ffffffffffffffff8111156131e257600080fd5b6131ee87828801613062565b91505092959194509250565b6000806040838503121561320d57600080fd5b600061321b85828601613023565b925050602061322c85828601613038565b9150509250929050565b6000806040838503121561324957600080fd5b600061325785828601613023565b9250506020613268858286016130b6565b9150509250929050565b60006020828403121561328457600080fd5b60006132928482850161304d565b91505092915050565b6000602082840312156132ad57600080fd5b600082013567ffffffffffffffff8111156132c757600080fd5b6132d38482850161308c565b91505092915050565b600080600080600080600060e0888a0312156132f757600080fd5b600088013567ffffffffffffffff81111561331157600080fd5b61331d8a828b0161308c565b975050602088013567ffffffffffffffff81111561333a57600080fd5b6133468a828b0161308c565b965050604088013567ffffffffffffffff81111561336357600080fd5b61336f8a828b0161308c565b955050606088013567ffffffffffffffff81111561338c57600080fd5b6133988a828b0161308c565b945050608088013567ffffffffffffffff8111156133b557600080fd5b6133c18a828b0161308c565b93505060a088013567ffffffffffffffff8111156133de57600080fd5b6133ea8a828b0161308c565b92505060c06133fb8a828b016130b6565b91505092959891949750929550565b60006020828403121561341c57600080fd5b600061342a848285016130b6565b91505092915050565b61343c81613738565b82525050565b61344b81613726565b82525050565b61345a8161374a565b82525050565b600061346b826136ff565b613475818561370a565b93506134858185602086016137bb565b61348e816137f0565b840191505092915050565b60006134a4826136ff565b6134ae818561371b565b93506134be8185602086016137bb565b80840191505092915050565b6134d3816137a2565b82525050565b60006134e58284613499565b915081905092915050565b60006020820190506135056000830184613442565b92915050565b60006020820190506135206000830184613451565b92915050565b600060208201905081810360008301526135408184613460565b905092915050565b600060608201905081810360008301526135628186613460565b90506135716020830185613442565b81810360408301526135838184613460565b9050949350505050565b60006020820190506135a260008301846134ca565b92915050565b6000610140820190506135be600083018d6134ca565b81810360208301526135d0818c613460565b905081810360408301526135e4818b613460565b905081810360608301526135f8818a613460565b9050818103608083015261360c8189613460565b905081810360a08301526136208188613460565b905081810360c08301526136348187613460565b905061364360e0830186613433565b6136516101008301856134ca565b61365f6101208301846134ca565b9b9a5050505050505050505050565b6000604051905081810181811067ffffffffffffffff82111715613695576136946137ee565b5b8060405250919050565b600067ffffffffffffffff8211156136ba576136b96137ee565b5b601f19601f8301169050602081019050919050565b600067ffffffffffffffff8211156136ea576136e96137ee565b5b601f19601f8301169050602081019050919050565b600081519050919050565b600082825260208201905092915050565b600081905092915050565b600061373182613782565b9050919050565b600061374382613782565b9050919050565b60008115159050919050565b60007fffffffff0000000000000000000000000000000000000000000000000000000082169050919050565b600073ffffffffffffffffffffffffffffffffffffffff82169050919050565b6000819050919050565b82818337600083830152505050565b60005b838110156137d95780820151818401526020810190506137be565b838111156137e8576000848401525b50505050565bfe5b6000601f19601f8301169050919050565b61380a81613726565b811461381557600080fd5b50565b6138218161374a565b811461382c57600080fd5b50565b61383881613756565b811461384357600080fd5b50565b61384f816137a2565b811461385a57600080fd5b5056fe456e756d657261626c655365743a20696e646578206f7574206f6620626f756e64734552433732313a207472616e7366657220746f206e6f6e20455243373231526563656976657220696d706c656d656e7465724552433732313a207472616e7366657220746f20746865207a65726f2061646472657373416464726573733a20696e73756666696369656e742062616c616e636520666f722063616c6c4552433732313a206f70657261746f7220717565727920666f72206e6f6e6578697374656e7420746f6b656e4552433732313a20617070726f76652063616c6c6572206973206e6f74206f776e6572206e6f7220617070726f76656420666f7220616c6c4552433732313a2062616c616e636520717565727920666f7220746865207a65726f20616464726573734552433732313a206f776e657220717565727920666f72206e6f6e6578697374656e7420746f6b656e456e756d657261626c654d61703a20696e646578206f7574206f6620626f756e64734552433732313a20617070726f76656420717565727920666f72206e6f6e6578697374656e7420746f6b656e4552433732314d657461646174613a2055524920736574206f66206e6f6e6578697374656e7420746f6b656e4552433732313a207472616e73666572206f6620746f6b656e2074686174206973206e6f74206f776e4552433732314d657461646174613a2055524920717565727920666f72206e6f6e6578697374656e7420746f6b656e4552433732313a20617070726f76616c20746f2063757272656e74206f776e65724552433732313a207472616e736665722063616c6c6572206973206e6f74206f776e6572206e6f7220617070726f766564a2646970667358221220848f9c40e51964886a71249b5a9ae52207e3d93e98c7fd93309fa4b40f35658164736f6c63430007060033",
  "immutableReferences": {},
  "source": "// SPDX-License-Identifier: MIT\r\npragma solidity >=0.4.21 <0.8.0;\r\npragma abicoder v2;\r\n\r\n// import ERC721 iterface\r\nimport \"./ERC721.sol\";\r\n\r\n// NFT smart contract inherits ERC721 interface\r\ncontract OTT is ERC721 {\r\n    // this contract's token collection name\r\n    string public collectionName;\r\n\r\n    // this contract's token symbol\r\n    string public collectionNameSymbol;\r\n\r\n    // total number of NFT minted\r\n    uint256 public ContentCounter;\r\n\r\n    // total number of User Created\r\n    uint256 public UserCounter;\r\n\r\n    // define NFT struct\r\n    struct Content {\r\n        uint256 contentId;\r\n        string contentName;\r\n        string contentType;\r\n        string contentDesc;\r\n        string subcribedUser;\r\n        string contentThumbnailURI;\r\n        string contentURI;\r\n        address payable currentOwner;\r\n        uint256 price;\r\n        uint256 numberOfViewer;\r\n        // string mintTime;\r\n        // bool forSale;\r\n    }\r\n\r\n    struct UserProfile {\r\n        string name;\r\n        address user;\r\n        string email;\r\n        Content[] contentCreated;\r\n        Content[] contenAccess;\r\n        // string timeOfRegistry;\r\n    }\r\n\r\n    // map user addresses to their profile\r\n    mapping(address => UserProfile) public allProfiles;\r\n    mapping(uint256 => address) public allAddress;\r\n\r\n    // check whether profile isset or not\r\n    mapping(address => bool) public isProfileSet;\r\n\r\n    // map NFT's token id to NFT\r\n    mapping(uint256 => Content) public allContents;\r\n    mapping(string => bool) public tokenContentExists;\r\n\r\n    // initialize contract while deployment with contract's collection name and token\r\n    constructor() ERC721(\"Content Collection\", \"OTT\") {\r\n        collectionName = name();\r\n        collectionNameSymbol = symbol();\r\n    }\r\n\r\n    // mint a new Content\r\n    function createContent(\r\n        string memory _name,\r\n        string memory _contentType,\r\n        string memory _contentDesc,\r\n        string memory _contentThumbnailURI,\r\n        string memory _contentURI,\r\n        string memory _tokenURI,\r\n        uint256 _price\r\n    ) external {\r\n        ContentCounter++;\r\n\r\n        require(!tokenContentExists[_contentURI]);\r\n\r\n        // mint the token\r\n        _mint(msg.sender, ContentCounter);\r\n\r\n        _setTokenURI(ContentCounter, _contentURI);\r\n\r\n        tokenContentExists[_contentURI] = true;\r\n\r\n        // create a new Content (struct) and pass in new values\r\n        Content memory newContent = Content(\r\n            ContentCounter,\r\n            _name,\r\n            _contentType,\r\n            _contentDesc,\r\n            \"\",\r\n            _contentThumbnailURI,\r\n            _contentURI,\r\n            msg.sender,\r\n            _price,\r\n            0\r\n            // false\r\n        );\r\n\r\n        // add the token id and it's content to allContent mapping\r\n        allContents[ContentCounter] = newContent;\r\n    }\r\n\r\n    // get owner of the token\r\n    function getTokenOwner(uint256 _tokenId) public view returns (address) {\r\n        address _to = ownerOf(_tokenId);\r\n        return _to;\r\n    }\r\n\r\n    // get metadata of the token\r\n    function getTokenMetaData(uint256 _tokenId)\r\n        public\r\n        view\r\n        returns (string memory)\r\n    {\r\n        string memory tm = tokenURI(_tokenId);\r\n        return tm;\r\n    }\r\n\r\n    // get total number of tokens minted so far\r\n    function getNumberOfContentMinted() public view returns (uint256) {\r\n        uint256 total = totalSupply();\r\n        return total;\r\n    }\r\n\r\n    // get total number of tokens owned by an address\r\n    // function getTotalNumberOfTokensOwnedByAnAddress(address _owner) public view returns(uint256) {\r\n    //   uint256 totalNumberOfTokensOwned = balanceOf(_owner);\r\n    //   return totalNumberOfTokensOwned;\r\n    // }\r\n\r\n    // check if the token already exists\r\n    // function getTokenExists(uint256 _tokenId) public view returns(bool) {\r\n    //   bool tokenExists = _exists(_tokenId);\r\n    //   return tokenExists;\r\n    // }\r\n\r\n// -------------------\r\n\r\n    // // by a token by passing in the token's id\r\n    // function buyToken(uint256 _tokenId) public payable {\r\n    //     // check if the function caller is not an zero account address\r\n    //     require(msg.sender != address(0));\r\n\r\n    //     // check if the token id of the token being bought exists or not\r\n    //     require(_exists(_tokenId));\r\n\r\n    //     // get the token's owner\r\n    //     address owner = ownerOf(_tokenId);\r\n\r\n    //     // token's owner should not be an zero address account\r\n    //     require(owner != address(0));\r\n\r\n    //     // the one who wants to buy the token should not be the token's owner\r\n    //     require(owner != msg.sender);\r\n\r\n    //     // get that token from all NFT mapping and create a memory of it defined as (struct => NFT)\r\n    //     NFT memory nft = allNFTs[_tokenId];\r\n\r\n    //     // price sent in to buy should be equal to or more than the token's price\r\n    //     require(msg.value >= nft.price);\r\n\r\n    //     // token should be for sale\r\n    //     require(nft.forSale);\r\n\r\n    //     // transfer the token from owner to the caller of the function (buyer)\r\n    //     _transfer(owner, msg.sender, _tokenId);\r\n\r\n    //     // get owner of the token\r\n    //     address payable sendTo = nft.currentOwner;\r\n\r\n    //     // send token's worth of ethers to the owner\r\n    //     sendTo.transfer(msg.value);\r\n\r\n    //     // update the token's previous owner\r\n    //     nft.previousOwner = nft.currentOwner;\r\n\r\n    //     // update the token's current owner\r\n    //     nft.currentOwner = msg.sender;\r\n\r\n    //     // update the how many times this token was transfered\r\n    //     nft.numberOfTransfers += 1;\r\n\r\n    //     // toggle the forSale parameter of token\r\n    //     nft.forSale = false;\r\n\r\n    //     // set and update that token in the mapping\r\n    //     allNFTs[_tokenId] = nft;\r\n    // }\r\n\r\n    // function changeTokenPrice(uint256 _tokenId, uint256 _newPrice) public {\r\n    //     // require caller of the function is not an empty address\r\n    //     require(msg.sender != address(0));\r\n\r\n    //     // require that token should exist\r\n    //     require(_exists(_tokenId));\r\n\r\n    //     // get the token's owner\r\n    //     address owner = ownerOf(_tokenId);\r\n\r\n    //     // check that token's owner should be equal to the caller of the function\r\n    //     require(owner == msg.sender);\r\n\r\n    //     // get that token from allNFT mapping and create a memory of it defined as (struct => NFT)\r\n    //     NFT memory nft = allNFTs[_tokenId];\r\n\r\n    //     // update token's price with new price\r\n    //     nft.price = _newPrice;\r\n\r\n    //     // set and update that token in the mapping\r\n    //     allNFTs[_tokenId] = nft;\r\n    // }\r\n\r\n    // // switch between set for sale and set not for sale\r\n    // function toggleForSale(uint256 _tokenId) public {\r\n    //     // require caller of the function is not an empty address\r\n    //     require(msg.sender != address(0));\r\n\r\n    //     // require that token should exist\r\n    //     require(_exists(_tokenId));\r\n\r\n    //     // get the token's owner\r\n    //     address owner = ownerOf(_tokenId);\r\n\r\n    //     // check that token's owner should be equal to the caller of the function\r\n    //     require(owner == msg.sender);\r\n\r\n    //     // get that token from all NFT mapping and create a memory of it defined as (struct => NFT)\r\n    //     NFT memory nft = allNFTs[_tokenId];\r\n\r\n    //     // if token's forSale is false make it true and vice versa\r\n    //     if (nft.forSale) {\r\n    //         nft.forSale = false;\r\n    //     } else {\r\n    //         nft.forSale = true;\r\n    //     }\r\n\r\n    //     // set and update that token in the mapping\r\n    //     allNFTs[_tokenId] = nft;\r\n    // }\r\n\r\n    // function addUserProfile(\r\n    //     string memory _bannerHash,\r\n    //     string memory _imageHash,\r\n    //     string memory _name,\r\n    //     string memory _bio,\r\n    //     address _user,\r\n    //     string memory _email,\r\n    //     string memory _timestamp\r\n    // ) external {\r\n    //     // require caller of the function is not an empty address\r\n    //     require(msg.sender != address(0));\r\n\r\n    //     UserCounter++;\r\n\r\n    //     UserProfile memory userprofile = allProfiles[_user];\r\n\r\n    //     userprofile.bannerHash = _bannerHash;\r\n    //     userprofile.email = _email;\r\n    //     userprofile.imageHash = _imageHash;\r\n    //     userprofile.name = _name;\r\n    //     userprofile.description = _bio;\r\n    //     userprofile.user = _user;\r\n\r\n    //     // add the user's address and it's profile to all allProfiles mapping\r\n    //     if (!isProfileSet[_user]) {\r\n    //         userprofile.timeOfRegistry = _timestamp;\r\n    //         allAddress[UserCounter] = _user;\r\n    //     }\r\n\r\n    //     allProfiles[_user] = userprofile;\r\n    //     isProfileSet[_user] = true;\r\n    // }\r\n}\r\n",
  "sourcePath": "C:\\Users\\Jhenil\\Development\\SPIT-All-Stacker\\src\\contracts\\OTT.sol",
  "compiler": {
    "name": "solc",
    "version": "0.7.6+commit.7338295f.Emscripten.clang"
  },
  "schemaVersion": "3.4.4",
  "updatedAt": "2023-02-04T07:39:46.193Z",
  "devdoc": {
    "kind": "dev",
    "methods": {
      "approve(address,uint256)": {
        "details": "See {IERC721-approve}."
      },
      "balanceOf(address)": {
        "details": "See {IERC721-balanceOf}."
      },
      "baseURI()": {
        "details": "Returns the base URI set via {_setBaseURI}. This will be automatically added as a prefix in {tokenURI} to each token's URI, or to the token ID if no specific URI is set for that token ID."
      },
      "getApproved(uint256)": {
        "details": "See {IERC721-getApproved}."
      },
      "isApprovedForAll(address,address)": {
        "details": "See {IERC721-isApprovedForAll}."
      },
      "name()": {
        "details": "See {IERC721Metadata-name}."
      },
      "ownerOf(uint256)": {
        "details": "See {IERC721-ownerOf}."
      },
      "safeTransferFrom(address,address,uint256)": {
        "details": "See {IERC721-safeTransferFrom}."
      },
      "safeTransferFrom(address,address,uint256,bytes)": {
        "details": "See {IERC721-safeTransferFrom}."
      },
      "setApprovalForAll(address,bool)": {
        "details": "See {IERC721-setApprovalForAll}."
      },
      "supportsInterface(bytes4)": {
        "details": "See {IERC165-supportsInterface}. Time complexity O(1), guaranteed to always use less than 30 000 gas."
      },
      "symbol()": {
        "details": "See {IERC721Metadata-symbol}."
      },
      "tokenByIndex(uint256)": {
        "details": "See {IERC721Enumerable-tokenByIndex}."
      },
      "tokenOfOwnerByIndex(address,uint256)": {
        "details": "See {IERC721Enumerable-tokenOfOwnerByIndex}."
      },
      "tokenURI(uint256)": {
        "details": "See {IERC721Metadata-tokenURI}."
      },
      "totalSupply()": {
        "details": "See {IERC721Enumerable-totalSupply}."
      },
      "transferFrom(address,address,uint256)": {
        "details": "See {IERC721-transferFrom}."
      }
    },
    "version": 1
  },
  "userdoc": {
    "kind": "user",
    "methods": {},
    "version": 1
  }
}