{
  "contractName": "OTT",
  "abi": [
    {
      "inputs": [],
      "stateMutability": "nonpayable",
      "type": "constructor"
    },
    {
      "anonymous": false,
      "inputs": [
        {
          "indexed": true,
          "internalType": "address",
          "name": "owner",
          "type": "address"
        },
        {
          "indexed": true,
          "internalType": "address",
          "name": "approved",
          "type": "address"
        },
        {
          "indexed": true,
          "internalType": "uint256",
          "name": "tokenId",
          "type": "uint256"
        }
      ],
      "name": "Approval",
      "type": "event"
    },
    {
      "anonymous": false,
      "inputs": [
        {
          "indexed": true,
          "internalType": "address",
          "name": "owner",
          "type": "address"
        },
        {
          "indexed": true,
          "internalType": "address",
          "name": "operator",
          "type": "address"
        },
        {
          "indexed": false,
          "internalType": "bool",
          "name": "approved",
          "type": "bool"
        }
      ],
      "name": "ApprovalForAll",
      "type": "event"
    },
    {
      "anonymous": false,
      "inputs": [
        {
          "indexed": true,
          "internalType": "address",
          "name": "from",
          "type": "address"
        },
        {
          "indexed": true,
          "internalType": "address",
          "name": "to",
          "type": "address"
        },
        {
          "indexed": true,
          "internalType": "uint256",
          "name": "tokenId",
          "type": "uint256"
        }
      ],
      "name": "Transfer",
      "type": "event"
    },
    {
      "inputs": [],
      "name": "ContentCounter",
      "outputs": [
        {
          "internalType": "uint256",
          "name": "",
          "type": "uint256"
        }
      ],
      "stateMutability": "view",
      "type": "function",
      "constant": true
    },
    {
      "inputs": [],
      "name": "UserCounter",
      "outputs": [
        {
          "internalType": "uint256",
          "name": "",
          "type": "uint256"
        }
      ],
      "stateMutability": "view",
      "type": "function",
      "constant": true
    },
    {
      "inputs": [
        {
          "internalType": "uint256",
          "name": "",
          "type": "uint256"
        }
      ],
      "name": "allAddress",
      "outputs": [
        {
          "internalType": "address",
          "name": "",
          "type": "address"
        }
      ],
      "stateMutability": "view",
      "type": "function",
      "constant": true
    },
    {
      "inputs": [
        {
          "internalType": "uint256",
          "name": "",
          "type": "uint256"
        }
      ],
      "name": "allContents",
      "outputs": [
        {
          "internalType": "uint256",
          "name": "contentId",
          "type": "uint256"
        },
        {
          "internalType": "string",
          "name": "contentName",
          "type": "string"
        },
        {
          "internalType": "string",
          "name": "contentType",
          "type": "string"
        },
        {
          "internalType": "string",
          "name": "contentDesc",
          "type": "string"
        },
        {
          "internalType": "string",
          "name": "subcribedUser",
          "type": "string"
        },
        {
          "internalType": "string",
          "name": "contentThumbnailURI",
          "type": "string"
        },
        {
          "internalType": "string",
          "name": "contentURI",
          "type": "string"
        },
        {
          "internalType": "address payable",
          "name": "currentOwner",
          "type": "address"
        },
        {
          "internalType": "uint256",
          "name": "price",
          "type": "uint256"
        },
        {
          "internalType": "uint256",
          "name": "numberOfViewer",
          "type": "uint256"
        }
      ],
      "stateMutability": "view",
      "type": "function",
      "constant": true
    },
    {
      "inputs": [
        {
          "internalType": "address",
          "name": "",
          "type": "address"
        }
      ],
      "name": "allProfiles",
      "outputs": [
        {
          "internalType": "string",
          "name": "name",
          "type": "string"
        },
        {
          "internalType": "address",
          "name": "user",
          "type": "address"
        },
        {
          "internalType": "string",
          "name": "email",
          "type": "string"
        }
      ],
      "stateMutability": "view",
      "type": "function",
      "constant": true
    },
    {
      "inputs": [
        {
          "internalType": "address",
          "name": "to",
          "type": "address"
        },
        {
          "internalType": "uint256",
          "name": "tokenId",
          "type": "uint256"
        }
      ],
      "name": "approve",
      "outputs": [],
      "stateMutability": "nonpayable",
      "type": "function"
    },
    {
      "inputs": [
        {
          "internalType": "address",
          "name": "owner",
          "type": "address"
        }
      ],
      "name": "balanceOf",
      "outputs": [
        {
          "internalType": "uint256",
          "name": "",
          "type": "uint256"
        }
      ],
      "stateMutability": "view",
      "type": "function",
      "constant": true
    },
    {
      "inputs": [],
      "name": "baseURI",
      "outputs": [
        {
          "internalType": "string",
          "name": "",
          "type": "string"
        }
      ],
      "stateMutability": "view",
      "type": "function",
      "constant": true
    },
    {
      "inputs": [],
      "name": "collectionName",
      "outputs": [
        {
          "internalType": "string",
          "name": "",
          "type": "string"
        }
      ],
      "stateMutability": "view",
      "type": "function",
      "constant": true
    },
    {
      "inputs": [],
      "name": "collectionNameSymbol",
      "outputs": [
        {
          "internalType": "string",
          "name": "",
          "type": "string"
        }
      ],
      "stateMutability": "view",
      "type": "function",
      "constant": true
    },
    {
      "inputs": [
        {
          "internalType": "uint256",
          "name": "tokenId",
          "type": "uint256"
        }
      ],
      "name": "getApproved",
      "outputs": [
        {
          "internalType": "address",
          "name": "",
          "type": "address"
        }
      ],
      "stateMutability": "view",
      "type": "function",
      "constant": true
    },
    {
      "inputs": [
        {
          "internalType": "address",
          "name": "owner",
          "type": "address"
        },
        {
          "internalType": "address",
          "name": "operator",
          "type": "address"
        }
      ],
      "name": "isApprovedForAll",
      "outputs": [
        {
          "internalType": "bool",
          "name": "",
          "type": "bool"
        }
      ],
      "stateMutability": "view",
      "type": "function",
      "constant": true
    },
    {
      "inputs": [
        {
          "internalType": "address",
          "name": "",
          "type": "address"
        }
      ],
      "name": "isProfileSet",
      "outputs": [
        {
          "internalType": "bool",
          "name": "",
          "type": "bool"
        }
      ],
      "stateMutability": "view",
      "type": "function",
      "constant": true
    },
    {
      "inputs": [],
      "name": "name",
      "outputs": [
        {
          "internalType": "string",
          "name": "",
          "type": "string"
        }
      ],
      "stateMutability": "view",
      "type": "function",
      "constant": true
    },
    {
      "inputs": [
        {
          "internalType": "uint256",
          "name": "tokenId",
          "type": "uint256"
        }
      ],
      "name": "ownerOf",
      "outputs": [
        {
          "internalType": "address",
          "name": "",
          "type": "address"
        }
      ],
      "stateMutability": "view",
      "type": "function",
      "constant": true
    },
    {
      "inputs": [
        {
          "internalType": "address",
          "name": "from",
          "type": "address"
        },
        {
          "internalType": "address",
          "name": "to",
          "type": "address"
        },
        {
          "internalType": "uint256",
          "name": "tokenId",
          "type": "uint256"
        }
      ],
      "name": "safeTransferFrom",
      "outputs": [],
      "stateMutability": "nonpayable",
      "type": "function"
    },
    {
      "inputs": [
        {
          "internalType": "address",
          "name": "from",
          "type": "address"
        },
        {
          "internalType": "address",
          "name": "to",
          "type": "address"
        },
        {
          "internalType": "uint256",
          "name": "tokenId",
          "type": "uint256"
        },
        {
          "internalType": "bytes",
          "name": "_data",
          "type": "bytes"
        }
      ],
      "name": "safeTransferFrom",
      "outputs": [],
      "stateMutability": "nonpayable",
      "type": "function"
    },
    {
      "inputs": [
        {
          "internalType": "address",
          "name": "operator",
          "type": "address"
        },
        {
          "internalType": "bool",
          "name": "approved",
          "type": "bool"
        }
      ],
      "name": "setApprovalForAll",
      "outputs": [],
      "stateMutability": "nonpayable",
      "type": "function"
    },
    {
      "inputs": [
        {
          "internalType": "bytes4",
          "name": "interfaceId",
          "type": "bytes4"
        }
      ],
      "name": "supportsInterface",
      "outputs": [
        {
          "internalType": "bool",
          "name": "",
          "type": "bool"
        }
      ],
      "stateMutability": "view",
      "type": "function",
      "constant": true
    },
    {
      "inputs": [],
      "name": "symbol",
      "outputs": [
        {
          "internalType": "string",
          "name": "",
          "type": "string"
        }
      ],
      "stateMutability": "view",
      "type": "function",
      "constant": true
    },
    {
      "inputs": [
        {
          "internalType": "uint256",
          "name": "index",
          "type": "uint256"
        }
      ],
      "name": "tokenByIndex",
      "outputs": [
        {
          "internalType": "uint256",
          "name": "",
          "type": "uint256"
        }
      ],
      "stateMutability": "view",
      "type": "function",
      "constant": true
    },
    {
      "inputs": [
        {
          "internalType": "string",
          "name": "",
          "type": "string"
        }
      ],
      "name": "tokenContentExists",
      "outputs": [
        {
          "internalType": "bool",
          "name": "",
          "type": "bool"
        }
      ],
      "stateMutability": "view",
      "type": "function",
      "constant": true
    },
    {
      "inputs": [
        {
          "internalType": "address",
          "name": "owner",
          "type": "address"
        },
        {
          "internalType": "uint256",
          "name": "index",
          "type": "uint256"
        }
      ],
      "name": "tokenOfOwnerByIndex",
      "outputs": [
        {
          "internalType": "uint256",
          "name": "",
          "type": "uint256"
        }
      ],
      "stateMutability": "view",
      "type": "function",
      "constant": true
    },
    {
      "inputs": [
        {
          "internalType": "uint256",
          "name": "tokenId",
          "type": "uint256"
        }
      ],
      "name": "tokenURI",
      "outputs": [
        {
          "internalType": "string",
          "name": "",
          "type": "string"
        }
      ],
      "stateMutability": "view",
      "type": "function",
      "constant": true
    },
    {
      "inputs": [],
      "name": "totalSupply",
      "outputs": [
        {
          "internalType": "uint256",
          "name": "",
          "type": "uint256"
        }
      ],
      "stateMutability": "view",
      "type": "function",
      "constant": true
    },
    {
      "inputs": [
        {
          "internalType": "address",
          "name": "from",
          "type": "address"
        },
        {
          "internalType": "address",
          "name": "to",
          "type": "address"
        },
        {
          "internalType": "uint256",
          "name": "tokenId",
          "type": "uint256"
        }
      ],
      "name": "transferFrom",
      "outputs": [],
      "stateMutability": "nonpayable",
      "type": "function"
    },
    {
      "inputs": [
        {
          "internalType": "string",
          "name": "_name",
          "type": "string"
        },
        {
          "internalType": "string",
          "name": "_contentType",
          "type": "string"
        },
        {
          "internalType": "string",
          "name": "_contentDesc",
          "type": "string"
        },
        {
          "internalType": "string",
          "name": "_contentThumbnailURI",
          "type": "string"
        },
        {
          "internalType": "string",
          "name": "_contentURI",
          "type": "string"
        },
        {
          "internalType": "uint256",
          "name": "_price",
          "type": "uint256"
        }
      ],
      "name": "createContent",
      "outputs": [],
      "stateMutability": "nonpayable",
      "type": "function"
    },
    {
      "inputs": [
        {
          "internalType": "uint256",
          "name": "_tokenId",
          "type": "uint256"
        }
      ],
      "name": "getTokenOwner",
      "outputs": [
        {
          "internalType": "address",
          "name": "",
          "type": "address"
        }
      ],
      "stateMutability": "view",
      "type": "function",
      "constant": true
    },
    {
      "inputs": [
        {
          "internalType": "uint256",
          "name": "_tokenId",
          "type": "uint256"
        }
      ],
      "name": "getTokenMetaData",
      "outputs": [
        {
          "internalType": "string",
          "name": "",
          "type": "string"
        }
      ],
      "stateMutability": "view",
      "type": "function",
      "constant": true
    },
    {
      "inputs": [],
      "name": "getNumberOfContentMinted",
      "outputs": [
        {
          "internalType": "uint256",
          "name": "",
          "type": "uint256"
        }
      ],
      "stateMutability": "view",
      "type": "function",
      "constant": true
    }
  ],
  "bytecode": "0x60806040523480156200001157600080fd5b506040518060400160405280601281526020017f436f6e74656e7420436f6c6c656374696f6e00000000000000000000000000008152506040518060400160405280600381526020017f4f54540000000000000000000000000000000000000000000000000000000000815250620000966301ffc9a760e01b6200016860201b60201c565b8160069080519060200190620000ae929190620003bd565b508060079080519060200190620000c7929190620003bd565b50620000e06380ac58cd60e01b6200016860201b60201c565b620000f8635b5e139f60e01b6200016860201b60201c565b6200011063780e9d6360e01b6200016860201b60201c565b5050620001226200027160201b60201c565b600a908051906020019062000139929190620003bd565b506200014a6200031760201b60201c565b600b908051906020019062000161929190620003bd565b5062000473565b63ffffffff60e01b817bffffffffffffffffffffffffffffffffffffffffffffffffffffffff1916141562000205576040517f08c379a000000000000000000000000000000000000000000000000000000000815260040180806020018281038252601c8152602001807f4552433136353a20696e76616c696420696e746572666163652069640000000081525060200191505060405180910390fd5b6001600080837bffffffffffffffffffffffffffffffffffffffffffffffffffffffff19167bffffffffffffffffffffffffffffffffffffffffffffffffffffffff1916815260200190815260200160002060006101000a81548160ff02191690831515021790555050565b606060068054600181600116156101000203166002900480601f0160208091040260200160405190810160405280929190818152602001828054600181600116156101000203166002900480156200030d5780601f10620002e1576101008083540402835291602001916200030d565b820191906000526020600020905b815481529060010190602001808311620002ef57829003601f168201915b5050505050905090565b606060078054600181600116156101000203166002900480601f016020809104026020016040519081016040528092919081815260200182805460018160011615610100020316600290048015620003b35780601f106200038757610100808354040283529160200191620003b3565b820191906000526020600020905b8154815290600101906020018083116200039557829003601f168201915b5050505050905090565b828054600181600116156101000203166002900490600052602060002090601f016020900481019282620003f5576000855562000441565b82601f106200041057805160ff191683800117855562000441565b8280016001018555821562000441579182015b828111156200044057825182559160200191906001019062000423565b5b50905062000450919062000454565b5090565b5b808211156200046f57600081600090555060010162000455565b5090565b613ade80620004836000396000f3fe608060405234801561001057600080fd5b50600436106101da5760003560e01c80636352211e11610104578063a5cd761f116100a2578063c87b56dd11610071578063c87b56dd146105d6578063e5326ab114610606578063e8403aa114610624578063e985e9c514610640576101da565b8063a5cd761f1461053c578063a8cef27a1461056c578063b88d4fde1461059c578063c36e1788146105b8576101da565b80636f9507f9116100de5780636f9507f9146104b457806370a08231146104d257806395d89b4114610502578063a22cb46514610520576101da565b80636352211e1461043657806367c623cf146104665780636c0360eb14610496576101da565b8063185756ae1161017c57806342842e0e1161014b57806342842e0e1461039c578063483f8602146103b85780634f6ccce7146103d657806357f2af6714610406576101da565b8063185756ae146103025780631f8de47f1461033257806323b872dd146103505780632f745c591461036c576101da565b8063081812fc116101b8578063081812fc1461025f578063095ea7b31461028f5780630a9bbe22146102ab57806318160ddd146102e4576101da565b806301ffc9a7146101df57806302959a201461020f57806306fdde0314610241575b600080fd5b6101f960048036038101906101f49190613271565b610670565b60405161020691906134dd565b60405180910390f35b610229600480360381019061022491906130ca565b6106d7565b6040516102389392919061351a565b60405180910390f35b610249610851565b60405161025691906134f8565b60405180910390f35b610279600480360381019061027491906133dc565b6108f3565b60405161028691906134c2565b60405180910390f35b6102a960048036038101906102a49190613235565b61098e565b005b6102c560048036038101906102c091906133dc565b610ad2565b6040516102db9a9998979695949392919061357a565b60405180910390f35b6102ec610ed6565b6040516102f9919061355f565b60405180910390f35b61031c600480360381019061031791906130ca565b610ee7565b60405161032991906134dd565b60405180910390f35b61033a610f07565b604051610347919061355f565b60405180910390f35b61036a6004803603810190610365919061312f565b610f0d565b005b61038660048036038101906103819190613235565b610f83565b604051610393919061355f565b60405180910390f35b6103b660048036038101906103b1919061312f565b610fde565b005b6103c0610ffe565b6040516103cd919061355f565b60405180910390f35b6103f060048036038101906103eb91906133dc565b611004565b6040516103fd919061355f565b60405180910390f35b610420600480360381019061041b919061329a565b611027565b60405161042d91906134dd565b60405180910390f35b610450600480360381019061044b91906133dc565b61105d565b60405161045d91906134c2565b60405180910390f35b610480600480360381019061047b91906133dc565b611094565b60405161048d91906134f8565b60405180910390f35b61049e6110ac565b6040516104ab91906134f8565b60405180910390f35b6104bc61114e565b6040516104c991906134f8565b60405180910390f35b6104ec60048036038101906104e791906130ca565b6111ec565b6040516104f9919061355f565b60405180910390f35b61050a6112c1565b60405161051791906134f8565b60405180910390f35b61053a600480360381019061053591906131f9565b611363565b005b610556600480360381019061055191906133dc565b611519565b60405161056391906134c2565b60405180910390f35b610586600480360381019061058191906133dc565b611530565b60405161059391906134c2565b60405180910390f35b6105b660048036038101906105b1919061317e565b611563565b005b6105c06115db565b6040516105cd919061355f565b60405180910390f35b6105f060048036038101906105eb91906133dc565b6115ef565b6040516105fd91906134f8565b60405180910390f35b61060e6118c0565b60405161061b91906134f8565b60405180910390f35b61063e600480360381019061063991906132db565b61195e565b005b61065a600480360381019061065591906130f3565b611b9e565b60405161066791906134dd565b60405180910390f35b6000806000837bffffffffffffffffffffffffffffffffffffffffffffffffffffffff19167bffffffffffffffffffffffffffffffffffffffffffffffffffffffff1916815260200190815260200160002060009054906101000a900460ff169050919050565b600e602052806000526040600020600091509050806000018054600181600116156101000203166002900480601f0160208091040260200160405190810160405280929190818152602001828054600181600116156101000203166002900480156107835780601f1061075857610100808354040283529160200191610783565b820191906000526020600020905b81548152906001019060200180831161076657829003601f168201915b5050505050908060010160009054906101000a900473ffffffffffffffffffffffffffffffffffffffff1690806002018054600181600116156101000203166002900480601f0160208091040260200160405190810160405280929190818152602001828054600181600116156101000203166002900480156108475780601f1061081c57610100808354040283529160200191610847565b820191906000526020600020905b81548152906001019060200180831161082a57829003601f168201915b5050505050905083565b606060068054600181600116156101000203166002900480601f0160208091040260200160405190810160405280929190818152602001828054600181600116156101000203166002900480156108e95780601f106108be576101008083540402835291602001916108e9565b820191906000526020600020905b8154815290600101906020018083116108cc57829003601f168201915b5050505050905090565b60006108fe82611c32565b610953576040517f08c379a000000000000000000000000000000000000000000000000000000000815260040180806020018281038252602c8152602001806139a7602c913960400191505060405180910390fd5b6004600083815260200190815260200160002060009054906101000a900473ffffffffffffffffffffffffffffffffffffffff169050919050565b60006109998261105d565b90508073ffffffffffffffffffffffffffffffffffffffff168373ffffffffffffffffffffffffffffffffffffffff161415610a20576040517f08c379a0000000000000000000000000000000000000000000000000000000008152600401808060200182810382526021815260200180613a576021913960400191505060405180910390fd5b8073ffffffffffffffffffffffffffffffffffffffff16610a3f611c4f565b73ffffffffffffffffffffffffffffffffffffffff161480610a6e5750610a6d81610a68611c4f565b611b9e565b5b610ac3576040517f08c379a00000000000000000000000000000000000000000000000000000000081526004018080602001828103825260388152602001806138fa6038913960400191505060405180910390fd5b610acd8383611c57565b505050565b6011602052806000526040600020600091509050806000015490806001018054600181600116156101000203166002900480601f016020809104026020016040519081016040528092919081815260200182805460018160011615610100020316600290048015610b845780601f10610b5957610100808354040283529160200191610b84565b820191906000526020600020905b815481529060010190602001808311610b6757829003601f168201915b505050505090806002018054600181600116156101000203166002900480601f016020809104026020016040519081016040528092919081815260200182805460018160011615610100020316600290048015610c225780601f10610bf757610100808354040283529160200191610c22565b820191906000526020600020905b815481529060010190602001808311610c0557829003601f168201915b505050505090806003018054600181600116156101000203166002900480601f016020809104026020016040519081016040528092919081815260200182805460018160011615610100020316600290048015610cc05780601f10610c9557610100808354040283529160200191610cc0565b820191906000526020600020905b815481529060010190602001808311610ca357829003601f168201915b505050505090806004018054600181600116156101000203166002900480601f016020809104026020016040519081016040528092919081815260200182805460018160011615610100020316600290048015610d5e5780601f10610d3357610100808354040283529160200191610d5e565b820191906000526020600020905b815481529060010190602001808311610d4157829003601f168201915b505050505090806005018054600181600116156101000203166002900480601f016020809104026020016040519081016040528092919081815260200182805460018160011615610100020316600290048015610dfc5780601f10610dd157610100808354040283529160200191610dfc565b820191906000526020600020905b815481529060010190602001808311610ddf57829003601f168201915b505050505090806006018054600181600116156101000203166002900480601f016020809104026020016040519081016040528092919081815260200182805460018160011615610100020316600290048015610e9a5780601f10610e6f57610100808354040283529160200191610e9a565b820191906000526020600020905b815481529060010190602001808311610e7d57829003601f168201915b5050505050908060070160009054906101000a900473ffffffffffffffffffffffffffffffffffffffff1690806008015490806009015490508a565b6000610ee26002611d10565b905090565b60106020528060005260406000206000915054906101000a900460ff1681565b600c5481565b610f1e610f18611c4f565b82611d25565b610f73576040517f08c379a0000000000000000000000000000000000000000000000000000000008152600401808060200182810382526031815260200180613a786031913960400191505060405180910390fd5b610f7e838383611e19565b505050565b6000610fd682600160008673ffffffffffffffffffffffffffffffffffffffff1673ffffffffffffffffffffffffffffffffffffffff16815260200190815260200160002061205c90919063ffffffff16565b905092915050565b610ff983838360405180602001604052806000815250611563565b505050565b600d5481565b60008061101b83600261207690919063ffffffff16565b50905080915050919050565b6012818051602081018201805184825260208301602085012081835280955050505050506000915054906101000a900460ff1681565b600061108d8260405180606001604052806029815260200161395c6029913960026120a29092919063ffffffff16565b9050919050565b606060006110a1836115ef565b905080915050919050565b606060098054600181600116156101000203166002900480601f0160208091040260200160405190810160405280929190818152602001828054600181600116156101000203166002900480156111445780601f1061111957610100808354040283529160200191611144565b820191906000526020600020905b81548152906001019060200180831161112757829003601f168201915b5050505050905090565b600b8054600181600116156101000203166002900480601f0160208091040260200160405190810160405280929190818152602001828054600181600116156101000203166002900480156111e45780601f106111b9576101008083540402835291602001916111e4565b820191906000526020600020905b8154815290600101906020018083116111c757829003601f168201915b505050505081565b60008073ffffffffffffffffffffffffffffffffffffffff168273ffffffffffffffffffffffffffffffffffffffff161415611273576040517f08c379a000000000000000000000000000000000000000000000000000000000815260040180806020018281038252602a815260200180613932602a913960400191505060405180910390fd5b6112ba600160008473ffffffffffffffffffffffffffffffffffffffff1673ffffffffffffffffffffffffffffffffffffffff1681526020019081526020016000206120c1565b9050919050565b606060078054600181600116156101000203166002900480601f0160208091040260200160405190810160405280929190818152602001828054600181600116156101000203166002900480156113595780601f1061132e57610100808354040283529160200191611359565b820191906000526020600020905b81548152906001019060200180831161133c57829003601f168201915b5050505050905090565b61136b611c4f565b73ffffffffffffffffffffffffffffffffffffffff168273ffffffffffffffffffffffffffffffffffffffff16141561140c576040517f08c379a00000000000000000000000000000000000000000000000000000000081526004018080602001828103825260198152602001807f4552433732313a20617070726f766520746f2063616c6c65720000000000000081525060200191505060405180910390fd5b8060056000611419611c4f565b73ffffffffffffffffffffffffffffffffffffffff1673ffffffffffffffffffffffffffffffffffffffff16815260200190815260200160002060008473ffffffffffffffffffffffffffffffffffffffff1673ffffffffffffffffffffffffffffffffffffffff16815260200190815260200160002060006101000a81548160ff0219169083151502179055508173ffffffffffffffffffffffffffffffffffffffff166114c6611c4f565b73ffffffffffffffffffffffffffffffffffffffff167f17307eab39ab6107e8899845ad3d59bd9653f200f220920489ca2b5937696c318360405180821515815260200191505060405180910390a35050565b6000806115258361105d565b905080915050919050565b600f6020528060005260406000206000915054906101000a900473ffffffffffffffffffffffffffffffffffffffff1681565b61157461156e611c4f565b83611d25565b6115c9576040517f08c379a0000000000000000000000000000000000000000000000000000000008152600401808060200182810382526031815260200180613a786031913960400191505060405180910390fd5b6115d5848484846120d6565b50505050565b6000806115e6610ed6565b90508091505090565b60606115fa82611c32565b61164f576040517f08c379a000000000000000000000000000000000000000000000000000000000815260040180806020018281038252602f815260200180613a28602f913960400191505060405180910390fd5b6000600860008481526020019081526020016000208054600181600116156101000203166002900480601f0160208091040260200160405190810160405280929190818152602001828054600181600116156101000203166002900480156116f85780601f106116cd576101008083540402835291602001916116f8565b820191906000526020600020905b8154815290600101906020018083116116db57829003601f168201915b5050505050905060006117096110ac565b905060008151141561171f5781925050506118bb565b6000825111156117f05780826040516020018083805190602001908083835b60208310611761578051825260208201915060208101905060208303925061173e565b6001836020036101000a03801982511681845116808217855250505050505090500182805190602001908083835b602083106117b2578051825260208201915060208101905060208303925061178f565b6001836020036101000a03801982511681845116808217855250505050505090500192505050604051602081830303815290604052925050506118bb565b806117fa85612148565b6040516020018083805190602001908083835b60208310611830578051825260208201915060208101905060208303925061180d565b6001836020036101000a03801982511681845116808217855250505050505090500182805190602001908083835b60208310611881578051825260208201915060208101905060208303925061185e565b6001836020036101000a03801982511681845116808217855250505050505090500192505050604051602081830303815290604052925050505b919050565b600a8054600181600116156101000203166002900480601f0160208091040260200160405190810160405280929190818152602001828054600181600116156101000203166002900480156119565780601f1061192b57610100808354040283529160200191611956565b820191906000526020600020905b81548152906001019060200180831161193957829003601f168201915b505050505081565b600c6000815480929190600101919050555060128260405161198091906134ab565b908152602001604051809103902060009054906101000a900460ff16156119a657600080fd5b6119b233600c5461228f565b6119be600c5483612483565b60016012836040516119d091906134ab565b908152602001604051809103902060006101000a81548160ff0219169083151502179055506000604051806101400160405280600c5481526020018881526020018781526020018681526020016040518060200160405280600081525081526020018581526020018481526020013373ffffffffffffffffffffffffffffffffffffffff168152602001838152602001600081525090508060116000600c548152602001908152602001600020600082015181600001556020820151816001019080519060200190611aa3929190612efb565b506040820151816002019080519060200190611ac0929190612efb565b506060820151816003019080519060200190611add929190612efb565b506080820151816004019080519060200190611afa929190612efb565b5060a0820151816005019080519060200190611b17929190612efb565b5060c0820151816006019080519060200190611b34929190612efb565b5060e08201518160070160006101000a81548173ffffffffffffffffffffffffffffffffffffffff021916908373ffffffffffffffffffffffffffffffffffffffff1602179055506101008201518160080155610120820151816009015590505050505050505050565b6000600560008473ffffffffffffffffffffffffffffffffffffffff1673ffffffffffffffffffffffffffffffffffffffff16815260200190815260200160002060008373ffffffffffffffffffffffffffffffffffffffff1673ffffffffffffffffffffffffffffffffffffffff16815260200190815260200160002060009054906101000a900460ff16905092915050565b6000611c4882600261250d90919063ffffffff16565b9050919050565b600033905090565b816004600083815260200190815260200160002060006101000a81548173ffffffffffffffffffffffffffffffffffffffff021916908373ffffffffffffffffffffffffffffffffffffffff160217905550808273ffffffffffffffffffffffffffffffffffffffff16611cca8361105d565b73ffffffffffffffffffffffffffffffffffffffff167f8c5be1e5ebec7d5bd14f71427d1e84f3dd0314c0f7b2291e5b200ac8c7c3b92560405160405180910390a45050565b6000611d1e82600001612527565b9050919050565b6000611d3082611c32565b611d85576040517f08c379a000000000000000000000000000000000000000000000000000000000815260040180806020018281038252602c8152602001806138ce602c913960400191505060405180910390fd5b6000611d908361105d565b90508073ffffffffffffffffffffffffffffffffffffffff168473ffffffffffffffffffffffffffffffffffffffff161480611dff57508373ffffffffffffffffffffffffffffffffffffffff16611de7846108f3565b73ffffffffffffffffffffffffffffffffffffffff16145b80611e105750611e0f8185611b9e565b5b91505092915050565b8273ffffffffffffffffffffffffffffffffffffffff16611e398261105d565b73ffffffffffffffffffffffffffffffffffffffff1614611ea5576040517f08c379a00000000000000000000000000000000000000000000000000000000081526004018080602001828103825260298152602001806139ff6029913960400191505060405180910390fd5b600073ffffffffffffffffffffffffffffffffffffffff168273ffffffffffffffffffffffffffffffffffffffff161415611f2b576040517f08c379a00000000000000000000000000000000000000000000000000000000081526004018080602001828103825260248152602001806138846024913960400191505060405180910390fd5b611f36838383612538565b611f41600082611c57565b611f9281600160008673ffffffffffffffffffffffffffffffffffffffff1673ffffffffffffffffffffffffffffffffffffffff16815260200190815260200160002061253d90919063ffffffff16565b50611fe481600160008573ffffffffffffffffffffffffffffffffffffffff1673ffffffffffffffffffffffffffffffffffffffff16815260200190815260200160002061255790919063ffffffff16565b50611ffb818360026125719092919063ffffffff16565b50808273ffffffffffffffffffffffffffffffffffffffff168473ffffffffffffffffffffffffffffffffffffffff167fddf252ad1be2c89b69c2b068fc378daa952ba7f163c4a11628f55a4df523b3ef60405160405180910390a4505050565b600061206b83600001836125a6565b60001c905092915050565b6000806000806120898660000186612629565b915091508160001c8160001c9350935050509250929050565b60006120b5846000018460001b846126c2565b60001c90509392505050565b60006120cf826000016127b8565b9050919050565b6120e1848484611e19565b6120ed848484846127c9565b612142576040517f08c379a00000000000000000000000000000000000000000000000000000000081526004018080602001828103825260328152602001806138526032913960400191505060405180910390fd5b50505050565b60606000821415612190576040518060400160405280600181526020017f3000000000000000000000000000000000000000000000000000000000000000815250905061228a565b600082905060005b600082146121ba578080600101915050600a82816121b257fe5b049150612198565b60008167ffffffffffffffff811180156121d357600080fd5b506040519080825280601f01601f1916602001820160405280156122065781602001600182028036833780820191505090505b50905060006001830390508593505b6000841461228257600a848161222757fe5b0660300160f81b8282806001900393508151811061224157fe5b60200101907effffffffffffffffffffffffffffffffffffffffffffffffffffffffffffff1916908160001a905350600a848161227a57fe5b049350612215565b819450505050505b919050565b600073ffffffffffffffffffffffffffffffffffffffff168273ffffffffffffffffffffffffffffffffffffffff161415612332576040517f08c379a00000000000000000000000000000000000000000000000000000000081526004018080602001828103825260208152602001807f4552433732313a206d696e7420746f20746865207a65726f206164647265737381525060200191505060405180910390fd5b61233b81611c32565b156123ae576040517f08c379a000000000000000000000000000000000000000000000000000000000815260040180806020018281038252601c8152602001807f4552433732313a20746f6b656e20616c7265616479206d696e7465640000000081525060200191505060405180910390fd5b6123ba60008383612538565b61240b81600160008573ffffffffffffffffffffffffffffffffffffffff1673ffffffffffffffffffffffffffffffffffffffff16815260200190815260200160002061255790919063ffffffff16565b50612422818360026125719092919063ffffffff16565b50808273ffffffffffffffffffffffffffffffffffffffff16600073ffffffffffffffffffffffffffffffffffffffff167fddf252ad1be2c89b69c2b068fc378daa952ba7f163c4a11628f55a4df523b3ef60405160405180910390a45050565b61248c82611c32565b6124e1576040517f08c379a000000000000000000000000000000000000000000000000000000000815260040180806020018281038252602c8152602001806139d3602c913960400191505060405180910390fd5b80600860008481526020019081526020016000209080519060200190612508929190612efb565b505050565b600061251f836000018360001b6129e2565b905092915050565b600081600001805490509050919050565b505050565b600061254f836000018360001b612a05565b905092915050565b6000612569836000018360001b612aed565b905092915050565b600061259d846000018460001b8473ffffffffffffffffffffffffffffffffffffffff1660001b612b5d565b90509392505050565b600081836000018054905011612607576040517f08c379a00000000000000000000000000000000000000000000000000000000081526004018080602001828103825260228152602001806138306022913960400191505060405180910390fd5b82600001828154811061261657fe5b9060005260206000200154905092915050565b6000808284600001805490501161268b576040517f08c379a00000000000000000000000000000000000000000000000000000000081526004018080602001828103825260228152602001806139856022913960400191505060405180910390fd5b600084600001848154811061269c57fe5b906000526020600020906002020190508060000154816001015492509250509250929050565b60008084600101600085815260200190815260200160002054905060008114158390612789576040517f08c379a00000000000000000000000000000000000000000000000000000000081526004018080602001828103825283818151815260200191508051906020019080838360005b8381101561274e578082015181840152602081019050612733565b50505050905090810190601f16801561277b5780820380516001836020036101000a031916815260200191505b509250505060405180910390fd5b5084600001600182038154811061279c57fe5b9060005260206000209060020201600101549150509392505050565b600081600001805490509050919050565b60006127ea8473ffffffffffffffffffffffffffffffffffffffff16612c39565b6127f757600190506129da565b600061296163150b7a0260e01b61280c611c4f565b888787604051602401808573ffffffffffffffffffffffffffffffffffffffff1681526020018473ffffffffffffffffffffffffffffffffffffffff16815260200183815260200180602001828103825283818151815260200191508051906020019080838360005b83811015612890578082015181840152602081019050612875565b50505050905090810190601f1680156128bd5780820380516001836020036101000a031916815260200191505b5095505050505050604051602081830303815290604052907bffffffffffffffffffffffffffffffffffffffffffffffffffffffff19166020820180517bffffffffffffffffffffffffffffffffffffffffffffffffffffffff8381831617835250505050604051806060016040528060328152602001613852603291398773ffffffffffffffffffffffffffffffffffffffff16612c4c9092919063ffffffff16565b9050600081806020019051602081101561297a57600080fd5b8101908080519060200190929190505050905063150b7a0260e01b7bffffffffffffffffffffffffffffffffffffffffffffffffffffffff1916817bffffffffffffffffffffffffffffffffffffffffffffffffffffffff191614925050505b949350505050565b600080836001016000848152602001908152602001600020541415905092915050565b60008083600101600084815260200190815260200160002054905060008114612ae15760006001820390506000600186600001805490500390506000866000018281548110612a5057fe5b9060005260206000200154905080876000018481548110612a6d57fe5b9060005260206000200181905550600183018760010160008381526020019081526020016000208190555086600001805480612aa557fe5b60019003818190600052602060002001600090559055866001016000878152602001908152602001600020600090556001945050505050612ae7565b60009150505b92915050565b6000612af98383612c64565b612b52578260000182908060018154018082558091505060019003906000526020600020016000909190919091505582600001805490508360010160008481526020019081526020016000208190555060019050612b57565b600090505b92915050565b6000808460010160008581526020019081526020016000205490506000811415612c0457846000016040518060400160405280868152602001858152509080600181540180825580915050600190039060005260206000209060020201600090919091909150600082015181600001556020820151816001015550508460000180549050856001016000868152602001908152602001600020819055506001915050612c32565b82856000016001830381548110612c1757fe5b90600052602060002090600202016001018190555060009150505b9392505050565b600080823b905060008111915050919050565b6060612c5b8484600085612c87565b90509392505050565b600080836001016000848152602001908152602001600020541415905092915050565b606082471015612ce2576040517f08c379a00000000000000000000000000000000000000000000000000000000081526004018080602001828103825260268152602001806138a86026913960400191505060405180910390fd5b612ceb85612c39565b612d5d576040517f08c379a000000000000000000000000000000000000000000000000000000000815260040180806020018281038252601d8152602001807f416464726573733a2063616c6c20746f206e6f6e2d636f6e747261637400000081525060200191505060405180910390fd5b6000808673ffffffffffffffffffffffffffffffffffffffff1685876040518082805190602001908083835b60208310612dac5780518252602082019150602081019050602083039250612d89565b6001836020036101000a03801982511681845116808217855250505050505090500191505060006040518083038185875af1925050503d8060008114612e0e576040519150601f19603f3d011682016040523d82523d6000602084013e612e13565b606091505b5091509150612e23828286612e2f565b92505050949350505050565b60608315612e3f57829050612ef4565b600083511115612e525782518084602001fd5b816040517f08c379a00000000000000000000000000000000000000000000000000000000081526004018080602001828103825283818151815260200191508051906020019080838360005b83811015612eb9578082015181840152602081019050612e9e565b50505050905090810190601f168015612ee65780820380516001836020036101000a031916815260200191505b509250505060405180910390fd5b9392505050565b828054600181600116156101000203166002900490600052602060002090601f016020900481019282612f315760008555612f78565b82601f10612f4a57805160ff1916838001178555612f78565b82800160010185558215612f78579182015b82811115612f77578251825591602001919060010190612f5c565b5b509050612f859190612f89565b5090565b5b80821115612fa2576000816000905550600101612f8a565b5090565b6000612fb9612fb484613671565b613640565b905082815260208101848484011115612fd157600080fd5b612fdc84828561377e565b509392505050565b6000612ff7612ff2846136a1565b613640565b90508281526020810184848401111561300f57600080fd5b61301a84828561377e565b509392505050565b600081359050613031816137d3565b92915050565b600081359050613046816137ea565b92915050565b60008135905061305b81613801565b92915050565b600082601f83011261307257600080fd5b8135613082848260208601612fa6565b91505092915050565b600082601f83011261309c57600080fd5b81356130ac848260208601612fe4565b91505092915050565b6000813590506130c481613818565b92915050565b6000602082840312156130dc57600080fd5b60006130ea84828501613022565b91505092915050565b6000806040838503121561310657600080fd5b600061311485828601613022565b925050602061312585828601613022565b9150509250929050565b60008060006060848603121561314457600080fd5b600061315286828701613022565b935050602061316386828701613022565b9250506040613174868287016130b5565b9150509250925092565b6000806000806080858703121561319457600080fd5b60006131a287828801613022565b94505060206131b387828801613022565b93505060406131c4878288016130b5565b925050606085013567ffffffffffffffff8111156131e157600080fd5b6131ed87828801613061565b91505092959194509250565b6000806040838503121561320c57600080fd5b600061321a85828601613022565b925050602061322b85828601613037565b9150509250929050565b6000806040838503121561324857600080fd5b600061325685828601613022565b9250506020613267858286016130b5565b9150509250929050565b60006020828403121561328357600080fd5b60006132918482850161304c565b91505092915050565b6000602082840312156132ac57600080fd5b600082013567ffffffffffffffff8111156132c657600080fd5b6132d28482850161308b565b91505092915050565b60008060008060008060c087890312156132f457600080fd5b600087013567ffffffffffffffff81111561330e57600080fd5b61331a89828a0161308b565b965050602087013567ffffffffffffffff81111561333757600080fd5b61334389828a0161308b565b955050604087013567ffffffffffffffff81111561336057600080fd5b61336c89828a0161308b565b945050606087013567ffffffffffffffff81111561338957600080fd5b61339589828a0161308b565b935050608087013567ffffffffffffffff8111156133b257600080fd5b6133be89828a0161308b565b92505060a06133cf89828a016130b5565b9150509295509295509295565b6000602082840312156133ee57600080fd5b60006133fc848285016130b5565b91505092915050565b61340e8161370a565b82525050565b61341d816136f8565b82525050565b61342c8161371c565b82525050565b600061343d826136d1565b61344781856136dc565b935061345781856020860161378d565b613460816137c2565b840191505092915050565b6000613476826136d1565b61348081856136ed565b935061349081856020860161378d565b80840191505092915050565b6134a581613774565b82525050565b60006134b7828461346b565b915081905092915050565b60006020820190506134d76000830184613414565b92915050565b60006020820190506134f26000830184613423565b92915050565b600060208201905081810360008301526135128184613432565b905092915050565b600060608201905081810360008301526135348186613432565b90506135436020830185613414565b81810360408301526135558184613432565b9050949350505050565b6000602082019050613574600083018461349c565b92915050565b600061014082019050613590600083018d61349c565b81810360208301526135a2818c613432565b905081810360408301526135b6818b613432565b905081810360608301526135ca818a613432565b905081810360808301526135de8189613432565b905081810360a08301526135f28188613432565b905081810360c08301526136068187613432565b905061361560e0830186613405565b61362361010083018561349c565b61363161012083018461349c565b9b9a5050505050505050505050565b6000604051905081810181811067ffffffffffffffff82111715613667576136666137c0565b5b8060405250919050565b600067ffffffffffffffff82111561368c5761368b6137c0565b5b601f19601f8301169050602081019050919050565b600067ffffffffffffffff8211156136bc576136bb6137c0565b5b601f19601f8301169050602081019050919050565b600081519050919050565b600082825260208201905092915050565b600081905092915050565b600061370382613754565b9050919050565b600061371582613754565b9050919050565b60008115159050919050565b60007fffffffff0000000000000000000000000000000000000000000000000000000082169050919050565b600073ffffffffffffffffffffffffffffffffffffffff82169050919050565b6000819050919050565b82818337600083830152505050565b60005b838110156137ab578082015181840152602081019050613790565b838111156137ba576000848401525b50505050565bfe5b6000601f19601f8301169050919050565b6137dc816136f8565b81146137e757600080fd5b50565b6137f38161371c565b81146137fe57600080fd5b50565b61380a81613728565b811461381557600080fd5b50565b61382181613774565b811461382c57600080fd5b5056fe456e756d657261626c655365743a20696e646578206f7574206f6620626f756e64734552433732313a207472616e7366657220746f206e6f6e20455243373231526563656976657220696d706c656d656e7465724552433732313a207472616e7366657220746f20746865207a65726f2061646472657373416464726573733a20696e73756666696369656e742062616c616e636520666f722063616c6c4552433732313a206f70657261746f7220717565727920666f72206e6f6e6578697374656e7420746f6b656e4552433732313a20617070726f76652063616c6c6572206973206e6f74206f776e6572206e6f7220617070726f76656420666f7220616c6c4552433732313a2062616c616e636520717565727920666f7220746865207a65726f20616464726573734552433732313a206f776e657220717565727920666f72206e6f6e6578697374656e7420746f6b656e456e756d657261626c654d61703a20696e646578206f7574206f6620626f756e64734552433732313a20617070726f76656420717565727920666f72206e6f6e6578697374656e7420746f6b656e4552433732314d657461646174613a2055524920736574206f66206e6f6e6578697374656e7420746f6b656e4552433732313a207472616e73666572206f6620746f6b656e2074686174206973206e6f74206f776e4552433732314d657461646174613a2055524920717565727920666f72206e6f6e6578697374656e7420746f6b656e4552433732313a20617070726f76616c20746f2063757272656e74206f776e65724552433732313a207472616e736665722063616c6c6572206973206e6f74206f776e6572206e6f7220617070726f766564a26469706673582212209f3308207121728e94fd5533935325b58c79a412a2e770ac2c17910567dc294064736f6c63430007060033",
  "immutableReferences": {},
  "source": "// SPDX-License-Identifier: MIT\r\npragma solidity >=0.4.21 <0.8.0;\r\npragma abicoder v2;\r\n\r\n// import ERC721 iterface\r\nimport \"./ERC721.sol\";\r\n\r\n// NFT smart contract inherits ERC721 interface\r\ncontract OTT is ERC721 {\r\n    // this contract's token collection name\r\n    string public collectionName;\r\n\r\n    // this contract's token symbol\r\n    string public collectionNameSymbol;\r\n\r\n    // total number of NFT minted\r\n    uint256 public ContentCounter;\r\n\r\n    // total number of User Created\r\n    uint256 public UserCounter;\r\n\r\n    // define NFT struct\r\n    struct Content {\r\n        uint256 contentId;\r\n        string contentName;\r\n        string contentType;\r\n        string contentDesc;\r\n        string subcribedUser;\r\n        string contentThumbnailURI;\r\n        string contentURI;\r\n        address payable currentOwner;\r\n        uint256 price;\r\n        uint256 numberOfViewer;\r\n        // string mintTime;\r\n        // bool forSale;\r\n    }\r\n\r\n    struct UserProfile {\r\n        string name;\r\n        address user;\r\n        string email;\r\n        Content[] contentCreated;\r\n        Content[] contenAccess;\r\n        // string timeOfRegistry;\r\n    }\r\n\r\n    // map user addresses to their profile\r\n    mapping(address => UserProfile) public allProfiles;\r\n    mapping(uint256 => address) public allAddress;\r\n\r\n    // check whether profile isset or not\r\n    mapping(address => bool) public isProfileSet;\r\n\r\n    // map NFT's token id to NFT\r\n    mapping(uint256 => Content) public allContents;\r\n    mapping(string => bool) public tokenContentExists;\r\n\r\n    // initialize contract while deployment with contract's collection name and token\r\n    constructor() ERC721(\"Content Collection\", \"OTT\") {\r\n        collectionName = name();\r\n        collectionNameSymbol = symbol();\r\n    }\r\n\r\n    // mint a new Content\r\n    function createContent(\r\n        string memory _name,\r\n        string memory _contentType,\r\n        string memory _contentDesc,\r\n        string memory _contentThumbnailURI,\r\n        string memory _contentURI,\r\n        uint256 _price\r\n    ) external {\r\n        ContentCounter++;\r\n\r\n        require(!tokenContentExists[_contentURI]);\r\n\r\n        // mint the token\r\n        _mint(msg.sender, ContentCounter);\r\n\r\n        _setTokenURI(ContentCounter, _contentURI);\r\n\r\n        tokenContentExists[_contentURI] = true;\r\n\r\n        // create a new Content (struct) and pass in new values\r\n        Content memory newContent = Content(\r\n            ContentCounter,\r\n            _name,\r\n            _contentType,\r\n            _contentDesc,\r\n            \"\",\r\n            _contentThumbnailURI,\r\n            _contentURI,\r\n            msg.sender,\r\n            _price,\r\n            0\r\n            // false\r\n        );\r\n\r\n        // add the token id and it's content to allContent mapping\r\n        allContents[ContentCounter] = newContent;\r\n    }\r\n\r\n    // get owner of the token\r\n    function getTokenOwner(uint256 _tokenId) public view returns (address) {\r\n        address _to = ownerOf(_tokenId);\r\n        return _to;\r\n    }\r\n\r\n    // get metadata of the token\r\n    function getTokenMetaData(uint256 _tokenId)\r\n        public\r\n        view\r\n        returns (string memory)\r\n    {\r\n        string memory tm = tokenURI(_tokenId);\r\n        return tm;\r\n    }\r\n\r\n    // get total number of tokens minted so far\r\n    function getNumberOfContentMinted() public view returns (uint256) {\r\n        uint256 total = totalSupply();\r\n        return total;\r\n    }\r\n\r\n    // get total number of tokens owned by an address\r\n    // function getTotalNumberOfTokensOwnedByAnAddress(address _owner) public view returns(uint256) {\r\n    //   uint256 totalNumberOfTokensOwned = balanceOf(_owner);\r\n    //   return totalNumberOfTokensOwned;\r\n    // }\r\n\r\n    // check if the token already exists\r\n    // function getTokenExists(uint256 _tokenId) public view returns(bool) {\r\n    //   bool tokenExists = _exists(_tokenId);\r\n    //   return tokenExists;\r\n    // }\r\n\r\n// -------------------\r\n\r\n    // // by a token by passing in the token's id\r\n    // function buyToken(uint256 _tokenId) public payable {\r\n    //     // check if the function caller is not an zero account address\r\n    //     require(msg.sender != address(0));\r\n\r\n    //     // check if the token id of the token being bought exists or not\r\n    //     require(_exists(_tokenId));\r\n\r\n    //     // get the token's owner\r\n    //     address owner = ownerOf(_tokenId);\r\n\r\n    //     // token's owner should not be an zero address account\r\n    //     require(owner != address(0));\r\n\r\n    //     // the one who wants to buy the token should not be the token's owner\r\n    //     require(owner != msg.sender);\r\n\r\n    //     // get that token from all NFT mapping and create a memory of it defined as (struct => NFT)\r\n    //     NFT memory nft = allNFTs[_tokenId];\r\n\r\n    //     // price sent in to buy should be equal to or more than the token's price\r\n    //     require(msg.value >= nft.price);\r\n\r\n    //     // token should be for sale\r\n    //     require(nft.forSale);\r\n\r\n    //     // transfer the token from owner to the caller of the function (buyer)\r\n    //     _transfer(owner, msg.sender, _tokenId);\r\n\r\n    //     // get owner of the token\r\n    //     address payable sendTo = nft.currentOwner;\r\n\r\n    //     // send token's worth of ethers to the owner\r\n    //     sendTo.transfer(msg.value);\r\n\r\n    //     // update the token's previous owner\r\n    //     nft.previousOwner = nft.currentOwner;\r\n\r\n    //     // update the token's current owner\r\n    //     nft.currentOwner = msg.sender;\r\n\r\n    //     // update the how many times this token was transfered\r\n    //     nft.numberOfTransfers += 1;\r\n\r\n    //     // toggle the forSale parameter of token\r\n    //     nft.forSale = false;\r\n\r\n    //     // set and update that token in the mapping\r\n    //     allNFTs[_tokenId] = nft;\r\n    // }\r\n\r\n    // function changeTokenPrice(uint256 _tokenId, uint256 _newPrice) public {\r\n    //     // require caller of the function is not an empty address\r\n    //     require(msg.sender != address(0));\r\n\r\n    //     // require that token should exist\r\n    //     require(_exists(_tokenId));\r\n\r\n    //     // get the token's owner\r\n    //     address owner = ownerOf(_tokenId);\r\n\r\n    //     // check that token's owner should be equal to the caller of the function\r\n    //     require(owner == msg.sender);\r\n\r\n    //     // get that token from allNFT mapping and create a memory of it defined as (struct => NFT)\r\n    //     NFT memory nft = allNFTs[_tokenId];\r\n\r\n    //     // update token's price with new price\r\n    //     nft.price = _newPrice;\r\n\r\n    //     // set and update that token in the mapping\r\n    //     allNFTs[_tokenId] = nft;\r\n    // }\r\n\r\n    // // switch between set for sale and set not for sale\r\n    // function toggleForSale(uint256 _tokenId) public {\r\n    //     // require caller of the function is not an empty address\r\n    //     require(msg.sender != address(0));\r\n\r\n    //     // require that token should exist\r\n    //     require(_exists(_tokenId));\r\n\r\n    //     // get the token's owner\r\n    //     address owner = ownerOf(_tokenId);\r\n\r\n    //     // check that token's owner should be equal to the caller of the function\r\n    //     require(owner == msg.sender);\r\n\r\n    //     // get that token from all NFT mapping and create a memory of it defined as (struct => NFT)\r\n    //     NFT memory nft = allNFTs[_tokenId];\r\n\r\n    //     // if token's forSale is false make it true and vice versa\r\n    //     if (nft.forSale) {\r\n    //         nft.forSale = false;\r\n    //     } else {\r\n    //         nft.forSale = true;\r\n    //     }\r\n\r\n    //     // set and update that token in the mapping\r\n    //     allNFTs[_tokenId] = nft;\r\n    // }\r\n\r\n    // function addUserProfile(\r\n    //     string memory _bannerHash,\r\n    //     string memory _imageHash,\r\n    //     string memory _name,\r\n    //     string memory _bio,\r\n    //     address _user,\r\n    //     string memory _email,\r\n    //     string memory _timestamp\r\n    // ) external {\r\n    //     // require caller of the function is not an empty address\r\n    //     require(msg.sender != address(0));\r\n\r\n    //     UserCounter++;\r\n\r\n    //     UserProfile memory userprofile = allProfiles[_user];\r\n\r\n    //     userprofile.bannerHash = _bannerHash;\r\n    //     userprofile.email = _email;\r\n    //     userprofile.imageHash = _imageHash;\r\n    //     userprofile.name = _name;\r\n    //     userprofile.description = _bio;\r\n    //     userprofile.user = _user;\r\n\r\n    //     // add the user's address and it's profile to all allProfiles mapping\r\n    //     if (!isProfileSet[_user]) {\r\n    //         userprofile.timeOfRegistry = _timestamp;\r\n    //         allAddress[UserCounter] = _user;\r\n    //     }\r\n\r\n    //     allProfiles[_user] = userprofile;\r\n    //     isProfileSet[_user] = true;\r\n    // }\r\n}\r\n",
  "sourcePath": "C:\\Users\\Harsh\\Blockchain\\SPIT-All-Stacker\\src\\contracts\\OTT.sol",
  "compiler": {
    "name": "solc",
    "version": "0.7.6+commit.7338295f.Emscripten.clang"
  },
  "schemaVersion": "3.4.8",
  "updatedAt": "2023-02-04T09:32:40.239Z",
  "networkType": "ethereum",
  "devdoc": {
    "kind": "dev",
    "methods": {
      "approve(address,uint256)": {
        "details": "See {IERC721-approve}."
      },
      "balanceOf(address)": {
        "details": "See {IERC721-balanceOf}."
      },
      "baseURI()": {
        "details": "Returns the base URI set via {_setBaseURI}. This will be automatically added as a prefix in {tokenURI} to each token's URI, or to the token ID if no specific URI is set for that token ID."
      },
      "getApproved(uint256)": {
        "details": "See {IERC721-getApproved}."
      },
      "isApprovedForAll(address,address)": {
        "details": "See {IERC721-isApprovedForAll}."
      },
      "name()": {
        "details": "See {IERC721Metadata-name}."
      },
      "ownerOf(uint256)": {
        "details": "See {IERC721-ownerOf}."
      },
      "safeTransferFrom(address,address,uint256)": {
        "details": "See {IERC721-safeTransferFrom}."
      },
      "safeTransferFrom(address,address,uint256,bytes)": {
        "details": "See {IERC721-safeTransferFrom}."
      },
      "setApprovalForAll(address,bool)": {
        "details": "See {IERC721-setApprovalForAll}."
      },
      "supportsInterface(bytes4)": {
        "details": "See {IERC165-supportsInterface}. Time complexity O(1), guaranteed to always use less than 30 000 gas."
      },
      "symbol()": {
        "details": "See {IERC721Metadata-symbol}."
      },
      "tokenByIndex(uint256)": {
        "details": "See {IERC721Enumerable-tokenByIndex}."
      },
      "tokenOfOwnerByIndex(address,uint256)": {
        "details": "See {IERC721Enumerable-tokenOfOwnerByIndex}."
      },
      "tokenURI(uint256)": {
        "details": "See {IERC721Metadata-tokenURI}."
      },
      "totalSupply()": {
        "details": "See {IERC721Enumerable-totalSupply}."
      },
      "transferFrom(address,address,uint256)": {
        "details": "See {IERC721-transferFrom}."
      }
    },
    "version": 1
  },
  "userdoc": {
    "kind": "user",
    "methods": {},
    "version": 1
  }
}